454        2SC03001800000000001304690Ballast Creek            Cuba Street       1.1 km S. of Malecon Dr. 999900000000            322004400804019100073737309194102000000502011000670000101140000000000A15104000012000067000091001097002002007300789999N0000N0000006676N1261115746N598381001097071124N  Y48N      0711    0000130000000000132011                    0N2 00    1000050 Y60000552031    NY          120716BZ                 0 07580
454        2SC08961810000000001304690Archers Creek            Malecon Dr        2.0 km NW of Wake Blvd.  999900000000            322004400804019101993737309195402000020002011000720000101141006500107A55104000019000072000116001127013013008501119999N0000N0000006667N1310118655N598381001127071124N  Y48N      0407    0000390000000000392011                    0N2 00198916001002YT0020502031    NY          120716BZ                 0 05380
45400000000000S6511610120000409100000HAGGINS BRANCH CREEK     IRR BIA RTE 1200  14 KM EAST OF ROCK HILL  999900009200000000000000345434720805236060063626209199702000001002009400680150111150000000000A15119000001000010900068000068000000000000009999N0000N000000NNN67143613277NN477   000000031224N  N  N              0000000000000000002012   0                0N2 010000NNNN010 Y600020020290000NY          120607BZ                 0*10000
45400000000000S6521610120000409100000HAGGINS BRANCH CREEK     IRR BIA RTE 1200  13.4 KM EAST OF ROCK HILL999900003500000000000000345433810805300270053626209199702000001002009500690300111150000000000A15119000001000008900068000068000000000000009999N0000N000000NNN77143513277NN476   000000031224N  N  N              0000000000000000002012   0                0N2 010000NNNN010 Y600020020290000NY          120607BZ                 0*10000
454000042520-000011600000000402500000HAM BRANCH               WIRE ROAD         CAROLINA SANDHILLS NWR   999900136770            343242000801048000063636309200102000000052011000550000111050000000000A15101000003000004900067000177000000004900549999N0000N9990008887N2441223463N577         041124N  N  N                                                        0N2 0000009100  0 Y80000102031    NY          120521BA                 2 07972
454000042520-000021600000000402500000BLACK CREEK              WIRE ROAD         CAROLINA SANDHILLS NWR   999900139980            343254000801024000133636309200102000000052011000550000111150000000000A15101000005000004900070000335000000004900559999N0000N9990008887N2423222563N587         041124N  N  N                                                        0N2 0000009100  0 Y50000102031    NY          120521BA                 2 07842
4540001400020001001310002000200100100PARKER CREEK             SC 20             GREENVLLE ST IN ABBEV    999900007100            341115000822454000003010116193002000021002010401890450000040000000000A15119000002000012800043000094000012012802239999N0000N999000NNN655450532456N598   000094091124N00N00N00            0000000000000000002012                    0N2 001977NNNN030 Y800296120300000NNL1C0047   120625BZ  L1C0NBI00447   0 08600
4540001400020002001310002000200100000CALHOUN CREEK            SC 20             2.6 MI N W OF ABBEVILLE  99990002690100SC00020000341251000822324000053010106193002000032002010401190000111140000000000A15119000003000011900030000104000000011901469999N0000N999000NNN855450532455N578   000104091124N00N00N00            0000000000000000002012                    0N2 001977NNNN060 Y800508820300000NN          120625BZ                 0 08710
4540001400020003001310002000200100000PARK CREEK               SC 20             10.3 MI N OF ABBEVILLE   99990011310100SC00020000341939000822246000003010106193002000016002010401040000111140000000000A15119000002000008900030000070000000008900989999N0000N999000NNN855450532455N568   000070091124N00N00N00            0000000000000000002012                    0N2 000000NNNN060 Y800254420300000NN          120625BZ                 0 08300
4540001400020004001310002000200100000CHICKASAW CREEK          SC 20             10.8 MI N W OF ABBEVILLE 99990013060100SC00020000342007000822410000003010106193002000016502010401100000000040000000000A15119000003000011000037000122000000011001499999N0000N999000NNN851522130656N568   000122091124N00N00N00            0000000000000000002012                    0N2 000000NNNN060 Y800262420300000NN          120625BZ                 0 08520
4540001400020005001310002000200100000HOGSKIN CREEK            SC 20             12.8 MI N.W. OF ABBEVILLE99990014000100SC00020000342140000822508000033010106193002000016502010401040000000040000000000A15119000003000010400037000122000000010401499999N0000N999000NNN651315118956N598   000122091124N00N00N00            0000000000000000002012                    0N2 000000NNNN060 Y800262420300000NN          120625BZ                 0 06950
4540001400020006001310002000200100000CORNER CREEK             SC 20             15.7MI NW ABBEV          99990018160100SC00020000342356000822640000053010106194902000006502010400980000111040000000000A15119000003000009400030000104000000009401109999N0000N999000NNN751387123456N598   000104091124N00N00N00            0000000000000000002012                    0N2 000000NNNN060 Y800103420300000NN          120625BZ                 0 08000
4540001400028002001310002800200100000CALHOUN CREEK            SC 28             2.9 MI N W ABBEVILLE     99990011430100SC00028000341228000822453000053010106200402000027002010501340000111140000000000A15201000004000013400091000366000000013401439999N0000N9990008888N5450532487N598   000366091124N00N00N00            0000000000000000002012                    0N2 0000001188060 Y300429320300000NNQ100011   120625BK* Q10BR0100811   0 09940
4540001400028003001310002800200100000LESLIE CREEK             SC 28             3.5 MI N W OF ABBEVILLE  99990012050100SC00028000341252000822517000053010106194002000027002010501340000111040000000000A15119000002000011100030000070000000011102659999N0000N999000NNN651891184655N598   000070091124N00N00N00            0000000000000000002012                    0N2 001969NNNN060 Y800429320300000NN          120625BZ                 0 08730
4540001400028004001310002800200100000PARK CREEK               SC 28             6.0 MI N W OF ABBEVILLE  99990014760100SC00028000341411000822728000133010106200402000027002010501340250111150000000000A15602000003000013400198000533000000013401439999N0000N9990008888N5450532487N598   000533091124N00N00N00            0000000000000000002012                    0N2 0000001188060 Y300429320300000NNQ100011   120625BK* Q10BR0101011   0 09840
4540001400028005001310002800200100000LITTLE RIVER             SC 28             6.7 MI N W OF ABBEVILLE  99990015550100SC00028000341429000822809000133010106193102000027002010301340000111040000000000A15104000002000812300152000914000000012301339999N0000N9990005556N2549228856N598   000914091124N00N00N00            0000000000000000002012                    0N2 0019701688060 Y900429320300000NN          120625BZ                 0 07870
4540001400028051001310002800200100000CSX RAIL ROAD            SC 28             2 MI SW OF ABBEVILLE     99990008030100SC0002800034095500082243200002301010620100200004100201090134015011114N000000000A12502000003000013400290000564000000013401659999R0701R081000888NN345033248785N8   000564091124N00N00N00            0000000000000000002012                    0N2 0000001188060 YN00651920300000NNL1CE011   120711FK* L1CBR0101811   0 09960
4540001400071001001310007100200100000GILL CREEK               SC 71             12.9 MI N W OF ABBEVILLE 999900014000            341258000823606000033010107196002000006502010300910000111150000000000A15104000002000008600091000183000000008600979999N0000N9990006668N2468227065N598   000183091124N00N00N00            0000000000000000002012                    0N2 0000001688050 Y500094920300000NN          120625BZ                 0 09480
4540001400071002001310007100200100000SHANKLIN CREEK           SC 71             9.5 MI N W OF ABBEVILLE  999900050600            341256000823220000053010107193802000005502010501040000111140000000000A15119000002000009400030000070000000009401719999N0000N999000NNN751891182856N598   000070091124N00N00N00            0000000000000000002012                    0N2 000000NNNN050 Y800080320300000NN          120625BZ                 0 08890
4540001400071003001310007100200100000PENNY CREEK              SC 71             6.8 MI N W OF ABBEVILLE  999900078600            341208000822846000083010107196002000005502010301040000111150000000000A15104000003000008600091000274000000008600979999N0000N9990006667N2468227065N598   000274091124N00N00N00            0000000000000000002012                    0N2 0000001688050 Y300080320300000NN          120625BZ                 0 08970
4540001400071004001310007100200100000LITTLE RIVER             SC 71             6.0 MI N W OF ABBEVILLE  999900086500            341157000822858000083010107200202000005502010501340000111150000000000A15602502003000213400274001189000000013401439999N0000N9990008888N5450532489N598   001189091124N00N00N00            0000000000000000002012                    0N2 0000001188050 Y500080320300000NNQ100011   120625BK* Q10BR0100411   0 09980
4540001400071005001310007100200100000CALHOUN CREEK            SC 71             4.7 MI N W OF ABBEVILLE  999900100400            341123000822744000033010107196102000012002010300980000111150000000000A15104000004000008600091000366000000008600979999N0000N9990006668N2468227065N598   000366091124N00N00N00            0000000000000000002012                    0N2 0000001688050 Y300175220300000NN          120625BZ                 0 08220
4540001400072002001310007200200100000MCKENLEY CREEK           SC 72             10.0 MI SW OF ABBEVILLE  99990007140100SC00072000340621000823151000033010102200504000026002010503350000111140000000000A15602602003000025300241000664000000025302629999N0000N9990007888N5450532489N598   000664091124N00N00N00            0000000000000000002012                    0N2 1000001188080 Y500452420300000NNH050010   120625BL* H05M0DL01910   0 09460
4540001400072005001310007200200100100BLUE HILL CREEK          SC 72             ABBEVILLE CITY LIMITS    99990017530100SC00072000341016000822242000023010114194904000098002010502320000111140000000000A55119000002000020100030000070015015020103479999N0000N999000NNN855450532457N598   000070091124N00N00N00            0000000000000000002012                    0N2 102003NNNN040 Y801528820300000NN          120625BZ                 0 08790
4540001400072006001310007200200100100NORRIS CRK               SC 72             1.0 MI N E OF ABBEVILLE  99990018680100SC00072000341050000822144000023010114198904000084002010502620300001140000000000A15119000002000020100030000070000000020104089999N0000N999000NNN575450532477N598   000070091124N00N00N00            0000000000000000002012                    0N2 100000NNNN040 Y801310420300000NN          120625BZ                 0 09820
4540001400072009001310007200200100000CURLTAIL CREEK           SC 72             7.0 MI N E OF ABBEVILLE  99990024830100SC00072000341124000821524000033010102199204000098002010503510000001140000000000A15119000002000099900030000070000000030404579999N0000N999000NNN771891176579N598   000070091124N00N00N00            0000000000000000002012                    0N2 100000NNNN080 Y801705220300000NN          120625BZ                 0 09760
4540001400072203001310007220200100000LITTLE RIVER             SC 72             8.8 MI SW OF ABBEVILLE   99990008270100SC00072000340638000823041000033010102200502000014002010501311000111140000000000A15602000007000013100357002185000000013101439999N0000N9990008787N5450532479N598   002185091124N00N00N00            0000000000000000002012                    0L1 1000001188080 Y500243620300000NN          120625BZ                 0 09980
4540001400072204001310007240200100000CALHOUN CREEK            SC 72             7.1 SW OF ABBEVILLE      99990010290100SC00072000319900000803653000003010102200602000014002010501340000111150000000000A15602000003000013400162000460000000013401439999N0000N0000007888N1450132489N598   000460091124N00N00N00            0000000000000000002012                    0L1 1000001188080 Y500243620300000NN          120625BZ                 0 10000
4540001400072207001310007220200100000MCCORDS CREEK            SC 72             3.0 MI NE OF ABBEVILLE   99990020750100SC00072000341104000821939000023010102199002000047002010501340140111040000000000A15502201001000413400213000579000000013401439999N0000N9990007778N5450532477N598   000579091124N00N00N00            0000000000000000002012                    0R2 1000001188080 Y500817820300000NN          120625BZ                 0 09960
4540001400072208001310007220200100000LONG CANE CREEK          SC 72             4.3 N E OF ABBEVILLE     99990022180100SC00072000341059000821811000023010102199002000049002010501340300111040000000000A15502000006000013400122000732000000013401439999N0000N9990007777N1639152279N598   000732091124N00N00N00            0000000000000000002012                    0R1 1000001188080 Y500852620300000NN          120625BZ                 0 09950
4540001400072403001310007240200100000LITTLE RIVER             SC 72             8.8 MI SW OF ABBEVILLE   99990008270100SC00072000340638000823041000033010102200602000014002010501311000111150000000000A15602000001000613100357002185000000013101439999N0000N9990008787N5450532479N598   002185091124N00N00N00            0000000000000000002012                    0R1 1000001188080 Y500243620300000NN          120625BZ                 0 09980
4540001400072404001310007220200100000CALHOUN CREEK            SC 72             7.1 SW OF ABBEVILLE      99990010290100SC00072000319900000803653000003010102200602000014002010501340000111150000000000A15602000003000013400162000460000000013401439999N0000N0000007888N5450532489N598   000460091124N00N00N00            0000000000000000002012                    0R1 1000001188080 Y500243620300000NN          120625BZ                 0 10000
4540001400072407001310007240200100000MCCORDS CREEK            SC 72             3.0 MI NE OF ABBEVILLE   99990020750100SC00072000341105000821940000023010102199002000047002010501340140111040000000000A15502201001000413400213000579000000013401439999N0000N9990007778N5450532479N598   000579091124N00N00N00            0000000000000000002012                    0L1 1000001188080 Y500817820300000NN          120625BZ                 0 09960
4540001400072408001310007240200100000LONG CANE CREEK          SC 72             4.3 MI N E OF ABBEVILLE  99990022180100SC00072000341100000821812000023010102199102000049002010501340300111040000000000A15502000005000013400122000610000000013401439999N0000N9990007776N1639152279N598   000610091124N00N00N00            0000000000000000002012                    0L1 1000001188080 Y500852620300000NN1140015   120625BZ  114879200114   0 09950
4540001400081001001310008100200110720CSX RAIL ROAD            SC 81             13.8 MI SW OF ABBEVILLE  99990004220100SC0008100034053400082355300002301010619400200002500201020122000000004N000000000A52402000003000007400140000384012012007401069999R0671R040000555NN237821895255N8311000473091124N00N00N00            0004770001190007162012                    0N2 0000001688060 YN00397520300000NN          120625BA                 2 04832
4540001400081002001310008100200100000ROCKY RIVER              SC 81             14.5MI NW ABBEV          99990013320100SC00081000341245000823749000083010106193802000013002010501280000111150000000000A15502000005000013500229000899000000013501459999N0000N9990007758N2657236959N598   000899091124N00N00N00            0000000000000000002012                    0N2 0019821188060 Y900206720300000NN          120625BZ                 0 08840
4540001400081003001310008100200100000CHARLIES CREEK           SC 81             2.1 MI SE OF ANDERSON COL99990015890100SC00081000341351000823909000063010106194002000013002010401100000111140000000000A15119000003000008800030000104000000008801049999N0000N999000NNN555450532455N598   000104091124N00N00N00            0000000000000000002012                    0N2 000000NNNN060 Y800206720300000NN          120625BZ                 0 08130
4540001400184001001310018400200100000ROCKY RIVER              SC 184            14.8MI NW ABBEV          99990000040100SC00184000341847000823442000103010106194102000012002010201040300111040000000000A15402000008000007300244001588000000007300789999N0000N9990005558N2477231554N598   001588091124N00Y60N00    1211    0000000000000000002012                    0N2 0000001188060 Y500190820300000NN          120625BZ                 0 06990
4540001400184002001310018400200100000JOHNSON CREEK            SC 184            9.4 MI NW OF ABBEVILLE   99990008200100SC00184000341740000822753000103010106198302000005502010501340000111150000000000A15502000003000013500213000643000000013501459999N0000N9990007777N2738239679N598   000643091124N00N00N00            0000000000000000002012                    0N2 0000001188060 Y300087520300000NN1180109   120625BK* 118006808109   0 09970
4540001400184003001310018400200100000LITTLE RIVER             SC 184            9.5 MI NW OF ABBEVILLE   99990009840100SC00184000341824000822628000113010106198402000008002010501340000111150000000000A15402000003000013500305000826000000013501459999N0000N9990007778N2522229779N598   000826091124N00N00N00            0000000000000000002012                    0N2 0000001688060 Y900127220300000NN1180109   120625BK* 118006808109   0 09810
4540001400184004001310018400200100000HOGSKIN CREEK            SC 184            9.7 MI NW OF ABBEVILLE   99990010170100SC00184000341836000822613000103010106198302000008002010401340000111150000000000A15502101001000413500183000549000000013501459999N0000N9990007777N2738246879N598   000549091124N00N00N00            0000000000000000002012                    0N2 0000001688060 Y300127220300000NN1180109   120625BK* 118006808109   0 09960
4540001400184005001310018400200100000CHICKASAW CREEK          SC 184            10.1 MI NW OF ABBEVILLE  99990011920100SC00184000341919000822440000103010106198302000008002010501340000111140000000000A15502101001000213500183000366000000013501459999N0000N9990007778N2720247779N598   000366091124N00N00N00            0000000000000000002012                    0N2 0000001688060 Y800127220300000NN1180109   120625BK* 118006808109   0 09960
4540001400184006001310018400200100000GOOSE CREEK              SC 184            16.5 MI NE OF ABBEVILLE  99990021660100SC00184000342428000821731000053010106194702000007002010300850000000040000000000A15104000005000007400122000610000000007400779999N0000N9990005558N2450225254N598   000610091124N00N00N00            0000000000000000002012                    0N2 0000001688060 Y300111320300000NN          120625BZ                 0 06240
4540001400185001001310018500200100000LITTLE RIVER             SC 185            14.8 MI N W OF ABBEVILLE 999900003900            342300000822737000053010107194102000010502010300910000011140000000000A15104000006000007300152000856000000007300789999N0000N9990004458N2450222544N598311000964091124N00N00N00            0009730002430014602012                    0N2 0000001688050 Y900153320300000NN          120625BA                 1 04211
4540001400185002001310018500200100000LONG CANE CREEK          SC 185            7.9 MI OF ABBEIVLLE      999900134100            341627000821816000103010107194802000022002010300980000111140000000000A15104104002000307400091000457000000007400789999N0000N9990005556N2369220752N598341000549091124N00N00N00            0002690000670004042012                    0N2 0000001688050 Y300321220300000NN          120625BA                 2 05382
4540001400201001001310020100200100000REEDS CREEK              SC 201            6.0 MI NW OF ABBEVILLE   999900030700            341537000822502000083010107194302000008502010501040000000040000000000A15119000003000010400037000122000000010402169999N0000N999000NNN755450532456N598   000122091124N00N00N00            0000000000000000002012                    0N2 000000NNNN050 Y800124120300000NN          120625BZ                 0 08560
4540001400201002001310020100200100000PARK CREEK               SC 201            7.3 MI NW OF ABBEVILLE   999900043900            341638000822535000113010107194802000008502010301040000000040000000000A15402000005000007300076000381000000007300789999N0000N9990005457N5333524344N598311000469091124N00N00N00            0004740001190007112012                    0N2 0000001688050 YU00124120300000NNH100015   120625BA  H10BR0101411   1 04641
4540001400201003001310020100200100000LITTLE RIVER             SC 201            8.3 MI NW OF ABBEVILLE   999900055600            341716000822630000103010107200202000008502010501340000111140000000000A15602000004000013400213000762000000013401439999N0000N9990008888N5450532489N598   000762091124N00N00N00            0000000000000000002012                    0N2 0000001188050 Y500124120300000NNQ100011   120625BK* Q10BR0100611   0 09960
4540001400203001001310020300200100100BAILEY CREEK             SC 203            5.3 MI NE OF ABBEVILLE   999900055000            341444000822017000053010107194002000010502010401100000000040000000000A15119000003000009100030000104000000009100989999N0000N999000NNN855450532455N598   000104091124N00N00N00            0000000000000000002012                    0N2 000000NNNN050 Y800153320300000NN          120625BZ                 0 08100
4540001400203002001310020300200100000JOB CREEK                SC 203            6.5 MI NE OF ABBEVILLE   999900066900            341537000821937000063010107194002000010502010401040000000040000000000A15119000002000009800037000082000000009801049999N0000N999000NNN755450532455N598   000082091124N00N00N00            0000000000000000002012                    0N2 000000NNNN050 Y800153320300000NN          120625BZ                 0 08470
4540001400284001001310028400200100000GILL CREEK               SC 284            2.3MI SE LOWNDESVILLE    999900001700            341150000823639000003010107197502000001502010200850000000050000000000A15101000005000009700046000229000000009701019999N0000N9990006655N1396123456N598   000229091124N00N00Y24        01120000000000000000002012                    0N2 0000002688050 Y500021920300000NN          120625BZ                 0 07720
4540001400823001001310082300200100000WHITES CREEK             SC 823            8.9 MI SW OF ABBEVILLE   999900000700            340349000822650000053010107194802000003002010501100000000040000000000A15119000003000009100037000122000000009100989999N0000N999000NNN655450532456N598   000122091124N00N00N00            0000000000000000002012                    0N2 000000NNNN050 Y800043820300000NN          120625BZ                 0 08590
4540001700001001001310000100200100100BLUE HILL CREEK          S-1-1             CITY OF ABBEVILLE        999900005200            341012000822256000003010117193502000023002010401340000000040000000000A55119000003000013400030000104015000013401689999N0000N999000NNN751396123457N598   000104101024N00N00N00            0000000000000000002012                    0N2 000000NNNN020 Y800324320300000NN          120625BZ                 0 07720
4540001700024001001310002400200100000JOHNSON CREEK            S-1-24            2.7MI NE ANTREVILLE      999900024500            341906000822958000033010107195402000004252010100850000000040000000000A15101000004000007400043000171000000007400789999N0000N9990005557N3297318054N598   000171101112N00N00N00            0000000000000000002012                    0N2 0000002688050 YU00062120300000NN          120625BZ                 0 05110
4540001700024002001310002400200100000LITTLE RIVER             S-1-24            4.1 MI NW DUE WEST       999900052800            342029000822737000023010107198702000002752010500850450111040000000000A15101000005000007300094000472000000007300779999N0000N9990007778N2747241475N598   000472101024N00N00N00            0000000000000000002012                    0N2 0000001188050 Y500040220300000NN1180109   120625BK* 118161007009   0 08500
4540001700032001001310003200200100000GILL CREEK               S-1-32            3.7MI NE CALHOUN FALLS   999900026400            340732000823259000023010107196302000001752010100980000111150000000000P15101000008000007100046000366000000007100849999N0000N9990006655N3297318054N598   000366101112N00N00N00            0000000000000000002012                    0N2 0000002688050 Y500025620300000NNH110015   120625BZ  H11BR0101911   0 05820
4540001700032002001310003200200100000SHANKLIN CREEK           S-1-32            8.0 MI SW ABBEVILLE      999900057900            340922000823104000033010107192402000001252010100850000000040000000000A15204000005000005500158000524000000005500649999N0000N9990005558N2414225253N596341000618101112N00N00N00            0002550000640003832012                    0N2 0000001688050 Y900018320300000NNH110015   120711FA  H11BR0101611   2 05972
4540001700032003001310003200200100000LITTLE RIVER             S-1-32            6.6MI W OF ABBEVILLE     999900074400            341003000822945000083010107196302000001252010100980001000050000000000A15310101001001705500308001039000000005500599999N0000N9990004555N1297118053N598311001143101112Y12N00N001011        0009100002280013652012                    0N2 0000002688050 Y900018320300000NNQ110015   120625BA  Q11BR0101211   1 04911
4540001700032004001310003200200100000CALHOUN CREEK            S-1-32            5.2MI SW ABBEVILLE       999900096300            340907000822752000083010107192402000005002010200850000000040000000000A15104000004000005500131000549000000005500639999N0000N9990005458N2486229742N596311000644101024N00N00N00            0006220001560009332012                    0N2 0000001688050 Y500073020300000NNH110015   120625BA  H11BR0101711   1 04811
4540001700032005001310003200200100100PARKERS CREEK            S-1-32            CITY OF ABBEVILLE        999900156200            341113000822243000023010119197002000010002010101100000000050000000000A15101000005000009700046000229000000009701019999N0000N9990006665N3297318056N598   000229101112N00N00N00            0000000000000000002012                    0N2 0000002688020 Y500128020300000NN          120625BZ                 0 07310
4540001700033001001310003300200100100BLUE HILL CREEK          S-1-33            CITY OF ABBEVILLE        999900004500            341003000822211000023010117197402000019502010200880000000050000000000A55502000003000008700091000274018000008701139999N0000N9990005565N3558320755N568   000274101024N00N00N00            0000000000000000002012                    0N2 0000002688020 Y500275020300000NN          120625BZ                 0 06440
4540001700033002001310003300200100000DOUBLE BRANCH            S-1-33            3.2 MI SE ABBEVILLE      999900028200            340818000822104000033010108198702000002002010500980250111040000000000A15502101001000209800152000344000000009801099999N0000N9990007778N2720246877N598   000344101024N00N00N00            0000000000000000002012                    0N2 0000001188070 Y500027820300000NN1170209   120625BK* 117200100109   0 10000
4540001700033003001310003300200100000MCGILL CREEK             S-1-33            4.8MI SE ABBEVILLE       999900049700            340631000822031000033010108195802000002002010100910000000040000000000A15101000003000008000046000137000000008000849999N0000N9990006657N3297318055N598   000137101112N00N00Y12        10110000000000000000002012                    0N2 0000002688070 YU00027820300000NN          120625BZ                 0 06220
4540001700033004001310003300200100000LONG CANE CREEK          S-1-33            7.0MI SE OF ABBEVILLE    999900069200            340517000821916000033010108196102000002002010100910000000050000000000P15302101002000808000152000671000000008000849999N0000N9990006646N2297218045N598311000771101112N00N00Y12        11110006790001700010192012                    0N2 0000002688070 Y800027820300000NN          120625BA                 1 04921
4540001700036001001310003600200100000JOHNSON CREEK            S-1-36            3.5MI E ANTREVILLE       999900012000            341838000822853000053010109201102000000602010901010000111140000000000A15501000003000010100183000396000000010101109999N0000N9990008887N3513330679N598   000396111024N00N00Y24        04110000000000000000002012                    0N2 0000002688000 Y500007720300000NN          120625BZ                 0 09920
4540001700037001001310003700200100000LITTLE RIVER             S-1-37            3.6MI W DUE WEST         999900011500            341959000822708000023010107195902000002002010200850000111140000000000P15502000005000008000091000457000000008000849999N0000N9990004456N1045104525N098311000549091112N00N00N00            0004840001210007262012                    0N2 0000002688070 YU00029220300000NNL1C0015   120625BA  L1CBR0101111   1 03691
4540001700037002001310003700200100000LONG BRANCH              S-1-37            3.0MI W DUE WEST         999900020300            342026000822625000023010107195902000002002010200980000000040000000000A15502000004000008000091000366000000008000849999N0000N9990006657N3558320755N598   000366101024N00N00Y24        05110000000000000000002012                    0N2 0000002688070 YU00029220300000NNH110015   120711FZ  H11BR0101511   0 06700
4540001700038001001310003800200100000OVERFLOW - LONG CANE CR  S-1-38            9.8 MI NE ABBEVILLE      999900045700            341828000821838000033010109198902000003502010501040000111040000000000A15201000003000010400091000274000000010401139999N0000N9990007778N2684237877N598   000274101024N00N00N00            0000000000000000002012                    0N2 0000001188060 Y500044820300000NN          120625BZ                 0 10000
4540001700038002001310003800200100000LONG CANE CREEK          S-1-38            9.8 MI NE ABBEVILLE      999900045800            341827000821835000033010109198902000003502010501040000111040000000000A15201000004000010400091000366000000010401139999N0000N9990007775N2684237877N598   000366101024N00N00N00            0000000000000000002012                    0N2 0000001188060 Y500044820300000NN          120625BZ                 0 10000
4540001700040001001310004000200100000CALHOUN CREEK            S-1-40            8.5MI SW ABBEVILLE       999900034300            340500000822834000023010108195402000001322010100980000000040000000000A15101000011000007400043000469000000007400789999N0000N9990005557N3297318055N598   000469101112N00N00N00            0000000000000000002012                    0N2 0000002688060 YU00018320300000NN          120625BZ                 0 05670
4540001700040002001310004000200100000LITTLE RIVER -LO LINE BR S-1-40            10.0MI SW ABBEVILLE      999900050900            340421000823003000053010108196802000001392010200850000000050000000000A15502000008000008000091000732000000008000849999N0000N9990006657N2387214445N598   000732111024N00N00N00            0000000000000000002012                    0N2 0000002688060 Y500019320300000NN          120625BZ                 0 05910
4540001700044001001310004400200100000PARK CREEK               S-1-44            1.1 MI SW DUE WEST       999900009900            341903000822318000023010107198802000014502010500850000111140000000000A15201000002000010400094000189000000010401149999N0000N9990007778N2450232476N598   000189111024N00N00N00            0000000000000000002012                    0N2 0000001188050 Y500211720300000NN          120625BZ                 0 09990
4540001700061001001310006100200100000LITTLE CURLTAIL CREEK    S-1-61            7.2MI E ABBEVILLE        999900007500            341146000821507000033010107197202000006002010201040000000050000000000A15101000005000009700046000229000000009701019999N0000N9990006667N3396323466N598   000229111024N00N00N00            0000000000000000002012                    0N2 0000002688060 Y500087620300000NN          120625BZ                 0 08310
4540001700061002001310006100200100000JOHNS CREEK              S-1-61            6.2MI NE ABBEVILLE       999900021800            341232000821605000083010107196402000006002010100850000000050000000000A15101000005000008000046000229000000008000849999N0000N9990006665N3297318055N598   000229101112N00N00N00            0000000000000000002012                    0N2 0000002688060 Y500087620300000NN          120625BZ                 0 07240
4540001700061003001310006100200100000DRY CREEK                S-1-61            7.0MI NE ABBEVILLE       999900034100            341333000821625000113010107196402000006002010100850000000050000000000A15101000004000008000046000183000000008000849999N0000N9990006658N3297318055N598   000183101112N00N00N00            0000000000000000002012                    0N2 0000002688060 Y500087620300000NN          120625BZ                 0 06220
4540001700061004001310006100200100000BAGG CREEK               S-1-61            7.0MI NE ABBEVILLE       999900046300            341429000821659000103010107196402000006002010100850000000050000000000A15101000007000008000046000320000000008000849999N0000N9990006655N3297318055N598   000320101112N00N00N00            0000000000000000002012                    0N2 0000002688060 Y500087620300000NN          120625BZ                 0 06230
4540001700061005001310006100200100000BR OF LONG CANE CR       S-1-61            7.3MI NE ABBEVILLE       999900057100            341517000821732000033010107196202000006002010100850000000050000000000A15101000004000008000046000183000000008000859999N0000N9990006665N3297318055N598   000183101112N00N00N00            0000000000000000002012                    0N2 0000002688060 Y500087620300000NN          120625BZ                 0 07260
4540001700064001001310006400200100000ROCKY RIVER              S-1-64            1.3MI SE LOWNDESVILLE    999900045800            341140000823751000033010109198202000000602010300910000111150000000000A15402000005000009800308001195000000009801099999N0000N9990007778N2594235178N598   001195111024N00N00N00            0000000000000000002012                    0N2 0000001188000 Y800007720300000NN          120625BZ                 0 10000
4540001700065001001310006500200100000BR OF ROCKY CR           S-1-65            0.6 MI SW LOWNDESVILLE   999900006100            341219000823923000033010109199602000002002010501100280111040000000000A15201000003000010400101000299000000010401109999N0000N9990007778N2450232477N596   000299111024N00N00N00            0000000000000000002012                    0N2 0000001188060 Y800025620300000NN          120625BZ                 0 10000
4540001700070001001310007000200100000BOWMANS BRANCH           S-1-70            2.4MI W LOWNDESVILLE     999900024000            341250000824121000003010109197802000000842010200790000000050000000000A15101000005000009700046000229000000009701019999N0000N9990006665N3396323467N598   000229111024N00N00Y24        05110000000000000000002012                    0N2 0000002688000 Y500010820300000NN          120625BZ                 0 08820
4540001700070002001310007000200100000BOWMANS CREEK            S-1-70            2.7MI W LOWNDESVILLE     999900027900            341245000824143000003010109197802000000842010200790000000050000000000A15502000003000009900091000274000000009901049999N0000N9990006665N2387224369N596   000274111024N00N00Y24        03110000000000000000002012                    0N2 0000002688000 Y500010820300000NN          120625BZ                 0 08950
4540001700070003001310007000200100000BOWMAN BRANCH            S-1-70            3.5MI SW LOWNDESVILLE    999900055500            341108000824159000003010109198202000000842010301160000111050000000000A15502000005000009800183000914000000009801099999N0000N9990007778N2648243278N598   000914111024N00N00N00            0000000000000000002012                    0N2 0000001188000 Y800010820300000NN          120625BZ                 0 09500
4540001700072001001310007200200100000WILSON CREEK             S-1-72            3.3MI NE LOWNDESVILLE    999900019500            341509000823721000113010107197202000002902010200980000001150000000000A15502000006000009800091000549000000009801039999N0000N9990006648N3558320747N598351000644111024N00N00Y24        03110002390000120002632012                    0N2 0019822688060 Y500042320300000NNH110015   120711FA  H11BR0102011   1 05871
4540001700072002001310007200200100000ROCKY RIVER              S-1-72            4.0MI NE LOWNDESVILLE    999900026700            341513000823638000113010107198202000004752010301220000111150000000000A15302101002000709800244001134000000009801099999N0000N9990007778N2585232476N598   001134111024N00N00N00            0000000000000000002012                    0N2 0000001188050 Y500069420300000NN          120625BZ                 0 09470
4540001700072003001310007200200100000PENNY CREEK              S-1-72            5.5MI SE ANTREVILLE      999900101800            341419000822930000023010107199702000003502010500790000111050000000000A15201000004000010400101000399000000010401109999N0000N9990007777N2450232477N598   000399111024N00N00N00            0000000000000000002012                    0N2 0000001188070 Y500051120300000NN1180108   120625BK* 118161207109   0 10000
4540001700073001001310007300200100000TURKEY CREEK             S-1-73            3.7 MI N DONALDS         999900023200            342547000822051000003010109195202000001752010100850000000040000000000P15702000002000006700034000070000000006700699999N0000N9990005458N2027202724N098311000132101112N00N00N00            0001050000260001582012                    0N2 0000008688060 Y800022420300000NN          120625BA                 1 02401
4540001700074001001310007400200100000JOB CREEK                S-1-74            7.1MI NE ABBEVILLE       999900036100            341633000822047000053010109196002000002402010100790000000050000000000A15101000003000008000046000137000000008000849999N0000N9990006667N3297318055N598   000137101112N00N00N00            0000000000000000002012                    0N2 0000002688060 Y500030720300000NN          120625BZ                 0 07720
4540001700074002001310007400200100000GRAYS CREEK              S-1-74            8.3MI NE ABBEVILLE       999900019000            341715000821919000053010109197202000001502010101040000000050000000000A15101000005000009700046000229000000009701019999N0000N9990006667N3297318056N598   000229101112N00N00N00            0000000000000000002012                    0N2 0000002688060 Y500019220300000NN          120625BZ                 0 07320
4540001700075001001310007500200100000MCCORD CREEK             S-1-75            2.2 MI NE ABBEVILLE      999900011500            341211000822113000033010109198702000006502010500850000001040000000000A15119000002000008800030000070000000008802539999N0000N999000NNN772450232475N598   000070111024N00N00N00            0000000000000000002012                    0N2 000000NNNN060 Y800083220300000NN1170109   120625BK* 117200100209   0 09690
4540001700075002001310007500200100000LONG CANE CREEK          S-1-75            6.2MI NE ABBEVILLE       999900053000            341424000821806000103010109200002000001752010501100000111150000000000A15602101002000210400210000619000000010401129999N0000N9990007888N1450132487N598   000619111024N00N00N00            0000000000000000002012                    0N2 0000001188060 Y500022420300000NNQ110009   120625BK* Q11BR0100211   0 09990
4540001700078001001310007800200100000CLEAR CREEK              S-1-78            2.5MI NE CALHOUN FALLS   999900014000            340613000823327000023010109195402000002702010100850000000040000000000A15101000002000007400043000085000000007400789999N0000N9990005558N3297318055N598   000085091112N00N00N00            0000000000000000002012                    0N2 0000002688060 YU00034620300000NN          120625BZ                 0 05220
4540001700083001001310008300200100000CSX RR                   S-1-83            6.9 MI SW ABBEVILLE      999900016000            340818000822925000053010109200002000001752010501040020111150000000000A52502000003000010400180000521000000010401129999R0724R081000888NN145013248795N8   000521111024N00N00N00            0000000000000000002012                    0N2 0000001188060 YN00022420300000NNQ120011   120625BK* Q12BR0100311   0 10000
4540001700087001001310008700200100000TURKEY CREEK             S-1-87            4.5 MI NE DONALDS        999900007700            342352000821628000033010108197202000003002010200850000000050000000000A15502000004000008000091000366000000008000849999N0000N9990005565N3558320755N598   000366111024N00N00N00            0000000000000000002012                    0N2 0000002688070 Y500041720300000NN          120625BZ                 0 06640
4540001700088001001310008800200100000SALUDA RIVER             S-1-88            6.4MI NE DONALDS         999900000400            342747000821826000033010108197602000001752010300910000000050000000000A15502000005000009800152000765000000009801089999N0000N9990006668N2333224367N598   000765111024N00N00N00            0000000000000000002012                    0N2 0000001188070 Y900024320300000NN1150108   120625BK* 115169000209   0 08950
4540001700096001001310009600200100000SHANKLIN CREEK           S-1-96            5.8MI NE LOWNDESVILLE    999900018600            341405000823308000003010109196202000001802010100850000000050000000000P15101000005000008000046000229000000008000849999N0000N9990006647N3297318045N598351000306091112N00N00N00            0000940000050001032012                    0N2 0000002688060 Y500023020300000NN          120625BA                 1 05121
4540001700096002001310009600200100000GILL CREEK               S-1-96            4.5MI NE LOWNDESVILLE    999900034100            341509000823441000033010109197202000001802010201100000000050000000000A15502000003000009900091000274000000009901039999N0000N9990006668N3558320767N598   000274111024N00N00N00            0000000000000000002012                    0N2 0000001188060 Y500023020300000NN          120625BZ                 0 07900
4540001700097001001310009700200100000SPUR CREEK               S-1-97            5.2MI SE ANTREVILLE      999900007400            341523000822825000033010107195902000002002010100850000000040000000000A15101000004000008000046000183000000008000849999N0000N9990006667N3297318055N598   000183101112N00N00N00            0000000000000000002012                    0N2 0000002688070 YU00029220300000NN          120625BZ                 0 07720
4540001700097002001310009700200100000JOHNSON CREEK            S-1-97            5.3MI SE ANTREVILLE      999900011900            341533000822805000023010107195902000002002010100910000000040000000000A15101000008000008000046000366000000008000849999N0000N9990005566N3297318055N598   000366101112N00N00N00            0000000000000000002012                    0N2 0000002688070 YU00029220300000NN          120625BZ                 0 06120
4540001700102001001310010200200100000BAILEY CREEK             S-1-102           6.0MI NE ABBEVILLE       999900015700            341429000821836000063010109196702000001202010100850000000050000000000A15101000006000008000046000274000000008000849999N0000N9990006657N3297318055N598   000274101112N00N00N00            0000000000000000002012                    0N2 0000002688060 Y500015420300000NN          120625BZ                 0 06720
4540001700108001001310010800200110720SPILLWAY OF RAW WATER RE S-1-108           TOWN OF CALHOUN FALLS    999900005500            340544000823537000003010109196502000004252010200790000000050000000000A15502000001000008000091000091000000008000849999N0000N9990006668N3558320765N598   000091111024N00N00N00            0000000000000000002012                    0N2 0000002688060 Y500054420300000NN          120625BZ                 0 07850
4540001700111001001310011100200100000GOOSE CREEK              S-1-111           2.8MI NE DONALDS         999900009600            342421000821854000033010108195702000003252010100790000000040000000000A15101000004000008000046000183000000008000849999N0000N9990005557N3297318055N598   000183101112N00N00N00            0000000000000000002012                    0N2 0000002688070 Y500045220300000NN          120625BZ                 0 06160
4540001700111002001310011100200100000TURKEY CREEK             S-1-111           3.3MI NE DONALDS         999900016200            342451000821843000033010108196002000003252010101040000000050000000000P15101000005000008000046000229000000008000849999N0000N9990005545N3297318045N598311000306101112N00N00N00            0002960000740004442012                    0N2 0000002688070 Y500045220300000NN          120625BA                 1 04361
4540001700111003001310011100200100000BROAD MOUTH CREEK        S-1-111           5.7MI NE DONALDS         999900048400            342722000821905000083010108196202000003252010200910000000050000000000A15502000005000008000091000457000000008000859999N0000N9990006657N3558320755N598   000457111024N00N00N00            0000000000000000002012                    0N2 0000002688070 Y500045220300000NN          120625BZ                 0 06230
4540001700112001001310011200200100000HOGSKIN CREEK            S-1-112           3.3MI NE DUE WEST        999900027800            342254000822358000033010107199702000002612010500910000111150000000000A15201000003000010400079000241000000010401109999N0000N9990007778N2450232477N598   000241111024N00N00N00            0000000000000000002012                    0N2 0000001188060 Y800038120300000NN          120625BZ                 0 10000
4540001700112002001310011200200100000CORNER CREEK             S-1-112           5.3MI NW DUE WEST        999900050400            342416000822337000033010109196202000002102010100910000000050000000000A15101000004000008000046000183000000008000849999N0000N9990006657N3297318055N598   000183091112N00N00N00            0000000000000000002012                    0N2 0000002688060 Y500026920300000NN          120625BZ                 0 06220
4540001700113001001310011300200100000CHICKASAW CREEK          S-1-113           0.7MI NW DUE WEST        999900007800            342017000822400000003010107195702000001982010100850000000040000000000P15101000005000007900046000229000000007900849999N0000N9990004446N3297318045N598311000306091112N00N00N00            0002700000680004052012                    0N2 0000002688060 Y500028920300000NNL1C0015   120625BA  L1CBR8806447   1 04821
4540001700114001001310011400200100000PARK CREEK               S-1-114           1.6MI SE DUE WEST        999900034600            341918000822259000023010107195702000007252010100850000000040000000000A15101000003000007900046000137000000007900849999N0000N9990006657N3297318055N598   000137101112N00N00N00            0000000000000000002012                    0N2 0000002688060 Y500105920300000NN          120625BZ                 0 06260
4540001700120001001310012000200100000NORRIS CREEK             S-1-120           1.6MI SE ABBEVILLE       999900014900            341007000822114000023010109199502000003002010500980000111150000000000A15201000003000009800091000274000000009801069999N0000N9990007778N2450232477N588   000274111024N00N00N00            0000000000000000002012                    0N2 0000001188060 Y500038420300000NN1180109   120625BK* 118200100509   0 10000
4540001700121001001310012100200100000CSX RR                   S-1-121           4.8MI NE CALHOUN FALLS   999900006200            340704000823117000033010109197202000000752010200850250000050000000000A12502000003000008600158000475000000008600969999R0749R069000666NN239622796795N8   000475111024N00N00N00            0000000000000000002012                    0N2 0000001188000 YN00009620300000NN          120625BZ                 0 09390
4540001700125001001310012500200100000LONG BRANCH              S-1-125           3.3MI NE LOWNDESVILLE    999900020800            341519000823756000033010107196002000001162010100790000000050000000000P15101000004000008000046000183000000008000849999N0000N9990006647N3297318045N598351000256091112N00N00N00            0000780000040000862012                    0N2 0000002688060 Y500016920300000NN          120625BA                 1 05121
4540001700126001001310012600200100000PARKERS CREEK            S-1-126           CITY OF ABBEVILLE        999900004100            341052000822215000003010119197402000012502010200980000000050000000000A55101000005000008900046000229021000008901179999N0000N9990006665N3396323465N548   000229111024N00N00N00            0000000000000000002012                    0N2 0000002688020 Y500160020300000NN          120625BZ                 0 07520
4540001700128001001310012800200100100BLUE HILL CREEK          S-1-128           CITY OF ABBEVILLE        999900001400            341014000822241000003010119200302000007002010500850100111150000000000A15119000002000009000030000070000000009001529999N0000N999000NNN881450132485N598   000070111024N00N00N00            0000000000000000002012                    0N2 000000NNNN020 Y800089620300000NN          120625BZ                 0 09900
4540001700130001001310013000200100000BLACKS CREEK             S-1-130           2.3MI E ANTREVILLE       999900024300            341848000823015000053010109197702000000602010200910000000050000000000A15502000003000008000091000274000000008000859999N0000N9990006665N3558320766N598   000274111024N00N00N00            0000000000000000002012                    0N2 0000002688000 Y500007720300000NN          120625BZ                 0 07900
4540001700133001001310013300200100000LONG CANE CREEK          S-1-133           4.1MI NE ABBEVILLE       999900018000            341115000821822000003010109200002000002502010500790000111150000000000A15302000003000010400280000780000000010401129999N0000N9990008888N1450132487N598   000780111024N00N00N00            0000000000000000002012                    0N2 0000001188060 Y800032020300000NNQ110009   120711FK* Q11BR0100211   0 10000
4540001700133002001310013300200100000MCCORDS CREEK            S-1-133           3.0MI NE ABBEVILLE       999900031900            341118000821943000003010108199802000027002010501160300111050000000000A15602000003000010200149000451000000010201119999N0000N9990007888N2450232484N598   000451111024N00N00N00            0000000000000000002012                    0N2 0000001188060 Y800375320300000NN1170209   120711FK* 117200107309   0 09300
4540001700133003001310013300200100100NORRIS CREEK             S-1-133           CITY LIMITS-ABBEVILLE    999900054800            341111000822155000023010117197402000030002010201400000000050000000000A55101000004000009600046000183000014009601189999N0000N9990006665N3396323464N598   000183111024N00N00N00            0000000000000000002012                    0N2 0000001688020 Y500423020300000NN          120625BZ                 0 07580
4540001700133004001310013300200100100PARKERS CREEK            S-1-133           ABBEVILLE CITY LIMITS    999900061200            341057000822229000003010119199602000015002010500790000100050000000000A55201000003000007900067000201000015007901019999N0000N9990007778N2450232474N598   000201111024N00N00N00            0000000000000000002012                    0N2 0000001188020 Y800192020300000NN1170115   120625BZ  117200100409   0 08480
4540001700135001001310013500200100000BR TO TURKEY CR.         S-1-135           4.2 MI NW DONALDS        999900006100            342609000822142000023010109196602000012902010100850000000050000000000A15101000005000007900046000229000000007900849999N0000N9990006657N3297318054N596   000229101112N00N00N00            0000000000000000002012                    0N2 0000002688060 Y500165120300000NN          120625BZ                 0 05470
4540001700140001001310014000200100000GILL CREEK               S-1-140           3.8MI SE LOWNDESVILLE    999900006900            341036000823542000053010109196702000001262010100490000000050000000000A15101000003000008000046000137000000008000849999N0000N9990006667N3297318055N598   000137091112N00N00N00            0000000000000000002012                    0N2 0000002188060 YU00016120300000NN          120625BZ                 0 07720
4540001700147001001310014700200100000CHICKASAW CREEK          S-1-147           0.5MI NW DUE WEST        999900038600            342026000822339000023010109199502000003302010501040000111140000000000A15201000003000010400091000274000000010401129999N0000N9990007778N1450132477N598   000274111024N00N00N00            0000000000000000002012                    0N2 0000001188060 Y500042220300000NN1140109   120625BK* 114200100309   0 10000
4540001700159001001310015900200100000LONG CANE CREEK          S-1-159           5.1 MI NE ABBEVILLE      999900013100            341305000821815000003010109195501000000422010100430000000050000000000P15310302001000304000244000460000000004000439999N0000N9990006457N2027202725N098311000552101112Y12N00N001011        0004390001100006592012                    0N3 0000008788000 YU00005420300000NN          120625BA                 1 02501
4540001700159002001310015900200100000DRY CREEK                S-1-159           5.3 MI NE 0F ABBEVILLE   999900028000            341215000821732000003010109195301000000422010100430000000040000000000P15302302001000203900067000098000000003900449999N0000N9990008578N2027202724N036311000162101112N00N00N00            0001290000320001942012                    0N3 0000008788000 Y500005420300000NNL110047   120625BA  L110FBI00214   1 02001
4540001700159003001310015900200100000JOHNS CREEK              S-1-159           5.3 MI NE ABBEVILLE      999900030400            341207000821721000003010109195001000000422010300430000000040000000000P15302000001000003600101000101000000003600399999N0000N9990008448N2027202723N033311000166101112N00N00N00            0001320000330001982012                    0N3 0000008788000 YU00005420300000NN          120625BA                 1 01701
4540001700163001001310016300200100000CLEAR CREEK              S-1-163           3.9MI NE CALHOUN FALLS   999900014400            340639000823204000033010109195702000002402010100910000000040000000000A15101000006000008000046000274000000008000849999N0000N9990005557N3297318055N598   000274091112N00N00N00            0000000000000000002012                    0N2 0000002688060 Y500030720300000NN          120625BZ                 0 06120
4540001700167001001310016700200100000BR TO LAKE SECESSION     S-1-167           14.1 MI NW ABBEVILLE     999900024900            341832000823409000053010109198302000001502010200980000011050000000000A15502101001000209700091000183000000009601019999N0000N9990007778N1405114446N598   000183111024N00N00N00            0000000000000000002012                    0N2 0000002688000 YU00019220300000NN          120625BZ                 0 07210
4540001700168001001310016800200100000HOGSKIN CREEK            S-1-168           2.7MI NW DUE WEST        999900003200            342050000822558000053010109196402000001802010100850000000050000000000A15101000006000007900046000274000000007900849999N0000N9990006655N3297318055N598   000274091112N00N00N00            0000000000000000002012                    0N2 0000002688000 Y500023020300000NN          120625BZ                 0 06720
4540001700171001001310017100200100000BRANCH OF BAILEY CREEK   S-1-171           4.7MI NE ABBEVILLE       999900022300            341439000822114000023010107196402000001162010100850000000050000000000A15101000004000008000046000183000000008000849999N0000N9990006666N3297318055N598   000183101112N00N00N00            0000000000000000002012                    0N2 0000002688060 Y500016920300000NN          120625BZ                 0 07720
4540001700178001001310017800200100000LITTLE HOGSKIN CREEK     S-1-178           2.4MI W DUE WEST         999900008200            341931000822542000033010109196902000000902010100850000000050000000000A15101000006000007900046000274000000007900849999N0000N9990006665N3297318056N598   000274101112N00N00N00            0000000000000000002012                    0N2 0000002688000 Y500011520300000NN          120625BZ                 0 07820
4540001700179001001310017900200100000CHICKASAW CREEK          S-1-179           2.6MI NE DUE WEST        999900011100            342201000822212000033010109196502000002002010100910000000050000000000A15101000004000007900046000183000000007900849999N0000N9990006655N3297318055N598   000183091112N00N00N00            0000000000000000002012                    0N2 0000002688060 Y500025620300000NN          120625BZ                 0 06220
4540001700181001001310018100200100000PARK CREEK               S-1-181           2.7MI SW DUE WEST        999900007000            341744000822400000053010109196702000000602010200910000000050000000000A15502000003000007900091000274000000007900849999N0000N9990006667N3558320766N598   000274111024N00N00N00            0000000000000000002012                    0N2 0000002688000 Y500007720300000NN          120625BZ                 0 07900
4540001700184001001310018400200100000LONG CANE CREEK          S-1-184           3.8MI SE DUE WEST        999900000100            341945000821930000053010109196702000001202010200850000000050000000000A15502000003000008000091000274000000008000849999N0000N9990006665N3558320765N598   000274111024N00N00N00            0000000000000000002012                    0N2 0000002688060 Y500015420300000NN          120625BZ                 0 08300
4540001700184002001310018400200100000MILLER BRANCH            S-1-184           3.5MI SE DUE WEST        999900004300            341927000821945000053010109200202000001202010500910000111150000000000A15101000004000010400046000183000000010401179999N0000N9990008878N1756145077N598   000183111024N00N00N00            0000000000000000002012                    0N2 0000002688060 Y500015420300000NN          120625BZ                 0 10000
4540001700184003001310018400200100000GRAYS CREEK              S-1-184           8.9MI NE ABBEVILLE       999900022000            341803000822021000053010109195902000000602010100850000000040000000000A15101000005000008000046000229000000008000849999N0000N9990006645N3297318046N598351000306101112N00N00Y12        12110000940000050001032012                    0N2 0000002688000 Y500007720300000NN          120625BA                 1 05221
4540001700185001001310018500200100000CALHOUN CREEK            S-1-185           6.6MI SW ABBEVILLE       999900023600            340746000822838000033010109200402000001322010500850000111140000000000A15501000003000010100152000457000000010101109999N0000N9990008878N1783146877N598   000457111024N00N00N00            0000000000000000002012                    0N2 0000002688060 Y500016920300000NN          120625BZ                 0 10000
4540001700195001001310019500200100000SHANKLIN CREEK           S-1-195           8.0MI W ABBEVILLE        999900004600            341024000823110000033010109196002000001802010100910000000050000000000P15101000008000008000046000366000000008000849999N0000N9990006647N3297318045N598311000454101112N00N00N00            0003610000900005422012                    0N2 0000002688060 Y500023020300000NN          120625BA                 1 04921
4540001700212001001310021200200100000LAKE SECESSION           S-1-212           2.0MI SW ANTREVILLE      999900020600            341740000823438000023010109196002000003502010100850000000050000000000P15101000007000007900046000320000000007900839999N0000N9990006648N3297318045N598311000406091112N00N00Y12        10110003920000980005882012                    0N2 0000002688060 Y500044820300000NNH110015   120625BA  H11BR0101311   1 04961
4540001700218001001310021800200100000BRANCH OF PENNY CREEK    S-1-218           3.1MI SE ANTREVILLE      999900022600            341549000823108000003010107196102000000292010100850000000050000000000P15101000003000008000046000137000000008000849999N0000N9990006655N3297318056N598   000137091112N00N00N00            0000000000000000002012                    0N2 0000002688000 Y500004220300000NN          120625BZ                 0 06820
4540001700220001001310022000200100000JOHNSON CREEK            S-1-220           4.0MI SE ANTREVILLE      999900006700            341806000822818000023010107197702000000872010200910000000050000000000A15502000005000008000091000457000000008000859999N0000N9990006668N3558320766N598   000457111024N00N00N00            0000000000000000002012                    0N2 0000002688000 Y500012720300000NN          120625BZ                 0 07900
4540001700228001001310022800200100000CHARLIES CREEK           S-1-228           1.1MI NE LOWNDESVILLE    999900006300            341258000823750000023010109198202000000902010300910000111150000000000A15502000004000009800183000732000000009801099999N0000N9990007778N2441231578N598   000732121024N00N00N00            0000000000000000002012                    0N2 0000001188000 Y800011520300000NN          120625BZ                 0 09970
4540001700254001001310025400200100000TRIB TO MURRAY CK        S-1-254           3.4MI NW DONALDS         999900007800            342506000822233000033010109198002000003602010200910000111150000000000A15101000005000008700046000229000000008701019999N0000N9990007775N3396323466N598   000229121024N00N00N00            0000000000000000002012                    0N2 0000002688060 Y500046120300000NN          120625BZ                 0 09120
4540001700284001001310028400200100000HAMMOND BRANCH           S-1-284           3.5MI SW ABBEVILLE       999900015100            340736000822354000033010109200402000003002010500850000111150000000000A15501000003000010100122000305000000010101109999N0000N9990008878N1630137877N598   000305121024N00N00N00            0000000000000000002012                    0N2 0000002688060 Y500038420300000NN          120625BZ                 0 10000
4540001700289001001310028900200100000LONG BRANCH              S-1-289           3.5MI NW DUE WEST        999900015700            342118000822644000033010109196502000000902010100850000000050000000000A15101000006000008000046000274000000008000849999N0000N9990006665N3297318056N598   000274091112N00N00N00            0000000000000000002012                    0N2 0000002688000 Y500011520300000NN          120625BZ                 0 07820
4540001700307001001310030700200100000FLAGREED CREEK           S-1-307           4.5MI SW ABBEVILLE       999900015600            340831000822643000063010108196602000001252010200980000000050000000000A15502000003000008000091000274000000008000849999N0000N9990006665N3558320765N598   000274121024N00N00Y24        01110000000000000000002012                    0N2 0000002688070 Y500017420300000NN          120625BZ                 0 07790
4540001700307002001310030700200100000CSX RR                   S-1-307           4.7MI SW ABBEVILLE       999900018400            340838000822658000063010108196602000001252010100980000000050000000000A12302101001000408000183000366000000008000849999R0678R068000565NN225221625564N8   000366101112N00N00Y12        01120000000000000000002012                    0N2 0000002688070 YN00017420300000NN          120625BZ                 0 05770
4540001700321001001310032100200100000BR OF HOGSKIN CREEK      S-1-321           2.7MI NW DUE WEST        999900002000            342205000822450000033010109196702000001262010100850000000050000000000A15101000004000008000046000183000000008000849999N0000N9990006665N3297318055N598   000183091112N00N00N00            0000000000000000002012                    0N2 0000002688060 Y500016120300000NN          120625BZ                 0 07720
4540001700323001001310032300200100000BR OF TURKEY CREEK       S-1-323           4.2MI NE DONALDS         999900011500            342457000821733000023010107197002000000872010100850000111150000000000A15101000005000008000046000229000000008000849999N0000N9990006665N3297318056N598   000229101112N00N00N00            0000000000000000002012                    0N2 0000002688000 Y500012720300000NN          120625BZ                 0 08120
4540001700324001001310032400200100000MC/CORDS CREEK           S-1-324           3.0MI NE ABBEVILLE       999900003200            341310000822201000003010109197002000004002010200910000111150000000000A15502000004000007000091000366000000007000849999N0000N9990006668N3558320764N598   000366121024N00N00N00            0000000000000000002012                    0N2 0000002688060 Y500051220300000NN          120625BZ                 0 07000
4540001700341001001310034100200100000HAMMOND BRANCH           S-1-341           3.0 MI SW ABBEVILLE      999900009000            340811000822341000023010109197002000001502010100850000000050000000000A15101000003000008000046000137000000008000849999N0000N9990006668N3297318055N578   000137101112N00N00N00            0000000000000000002012                    0N2 0000002688060 Y500019220300000NN          120625BZ                 0 07720
4540001700344001001310034400200100000MORROW CREEK             S-1-344           4.1 MI NE CALHOUN FALLS  999900011300            340819000823327000023010109199802000001002010501040000111150000000000A15602000003000010400180000482000000010401139999N0000N9990007888N2450232489N598   000482121024N00N00N00            0000000000000000002012                    0N2 0000001188060 Y500012820300000NN1170015   120711FZ  117200100811   0 10000
4540001700344002001310034400200100000GILL CREEK               S-1-344           3.6 MI NE CALHOUN FALLS  999900017200            340754000823346000023010109196902000001002010201040000111150000000000A15502000003000007100091000274000000007100859999N0000N9990006665N3558320765N598   000274121024N00N00N00            0000000000000000002012                    0N2 0000002688060 Y500012820300000NN          120625BZ                 0 08100
4540001700352001001310035200200100000BR OFJOHNSON CK.         S-1-352           3.1 MI NE ANTREVILLE     999900013900            342018000823030000023010109196902000000602010100850000000050000000000A15101000005000008000046000229000000008000849999N0000N9990006658N3297318056N598   000229091112N00N00N00            0000000000000000002012                    0N2 0000002688000 Y500007720300000NN          120625BZ                 0 06820
4540001700352002001310035200200100000JOHNSON CREEK            S-1-352           3.4 MI NE ANTREVILLE     999900016700            342024000823011000023010109196802000000602010100910000000050000000000A15101000004000007900046000183000000007900849999N0000N9990006667N3297318056N598   000183091112N00N00N00            0000000000000000002012                    0N2 0000002688000 Y500007720300000NN          120625BZ                 0 07320
4540001700902001001310090200200100000BR OF HOGSKIN CK.        S-1-902           3.8 MI NE DUE WEST       999900019100            342318000822407000033010109196902000002402010100910000000050000000000A15101000005000008000046000229000000008000849999N0000N9990006665N3297318055N598   000229091112N00N00N00            0000000000000000002012                    0N2 0000002688060 Y500030720300000NN          120625BZ                 0 07220
4540001700902002001310090200200100000BR OF HOGSKIN CK.        S-1-902           4.0 MI N DUE WEST        999900015000            342338000822358000033010109196802000002402010100910000000050000000000A15101000004000007900046000183000000007900849999N0000N9990006668N3297318055N598   000183091112N00N00N00            0000000000000000002012                    0N2 0000002688060 Y500030720300000NN          120625BZ                 0 07220
4540001900040001001410004000200100000SAWNEY CREEK             C-1-40            12.4 MI SW OF ABBEVILLE  999900079800            340359000823255000053020209199301000001262010500430000000050000000000A15701000001000004400091000091000000004400499999N0000N9990007776N2450232472N538341000155091124N00N00N00            0000760000190001142012                    0N3 0000008700060 YU00016120300000NNL11E047   120625BA  L110FBI00447   2 07522
4540001900120001001410012000200100000LONG CANE CREEK          C-1-120           4.3 MI SE OF ABBEVILLE   999900052700            340805000821935000053020209196701000001262010000430000000050000000000P15302302002000403500155000527000000003500389999N0000N9990005666N2027202722N033311000622091112N00N00N00            0004950001240007432012                    0N3 0000008788060 YU00016120300000NN          120625BA                 1 01881
4540001900124001001410012400200100000CHARLIES CREEK           C-1-124           15.3 MI NW OF ABBEVILLE  999900015500            341348000823824000023020209198101000001262010500430000000050000000000A15501000001000003500122000122000000003500379999N0000N9990007777N1639138772N568341000189091124N00N00N00            0001040000260001562012                    0N3 0000002188060 YU00016120300000NN          120625BA                 2 07802
4540001900180002001410018000200100000BR TO LONG CANE CK       C-1-180           11.9 MI NE OF ABBEVILLE  999900017200            342050000822040000053020209198001000001262010000430000000050000000000K15302000001000003300088000088000000003300369999N0000N9990004545N0000000000N036311000152091112N00N00N00            0001210000300001822012                    0N3 0000008788060 YU00016120300000NN          120625BA                 1 01571
4540001900289001001410028900200100000LITTLE RIVER             C-1-289           13.1 MI NW ABBEVILLE     999900000500            342115000822809001993020209195001000001262010000430000000050000000000P15302000001000002900125000125000000002900329999N0000N9990006543N0027002722N033311000192091112N00N00N00            0001530000380002302012                    0N3 0000008788060 Y500016120300000NN          120625BA                 1 00201
4540001900406001001410040600200100000LONG CANE CR             C-1-406           6.8 MI NE OF ABBEVILLE   999900025500            341836000821836000003020209196001000001262010000370000000040000000000P15302000001000002400101000101000000002400259999N0000N9990007547N0027002722N033311000166091112N00N00N00            0001320000330001982012                    0N3 0000008788000 Y500016120300000NN          120625BA                 1 01701
4540001900559001001410052600200100000JOHNSON CK               C-1-526           13.6 MI NW OF ABBEVILLE  999900012700            342054000823006000033020209198001000001262010000430000000050000000000P15302000001000003100091000091000000003100349999N0000N9990005547N0027002722N038311000155091112N00N00N00            0001240000310001862012                    0N3 0000008788060 YU00016120300000NN          120625BA                 1 01631
4540001900920001001410092000200100100PARKERS CREEK            C-1-920           0.1 MI W OF SC 20 IN ABB 999900001600            341117000822259000023040419193502000001382010100700500000040000000000P15302000001000006900079000079000000006900749999N0000N9990005547N2072207224N078311000142091112N00N00N00            0001130000280001702012                    0N2 0 00001688000 Y500017720300000NN          120625BA                 1 03041
4540002100020002001110002000700300000FOX CREEK                I-20              1 MI N OF N AUGUSTA      99990001750100I-00020000333233000815904000083010111196604000379002010504150000001050000000000A15119000002000011000040000082000000041504579999N0000N999000NNN551657139659N567   000082031224N00N00N00            0000000000000000002012                    1N2 100000NNNN121 Y814098820300000NN          120625BZ                 0 07200
4540002100020004001110002000700300000HIGH TOWER BRANCH        I-20              5 MI N OF BURNETTOWN     99990007960100I-00020000333458000815327000053010101196604000314002010502190000101050000000000A15119000002000017100030000073000000033504579999N0000N999000NNN751891189159N577   000073031224N00N00N00            0000000000000000002012                    1N2 100000NNNN121 Y810110820300000NN          120625BZ                 0 07760
4540002100020005001110002000700300000HORSE CREEK              I-20              6 MI NW OF GRANITIVILLE  99990009570100I-00020000333550000815212000053010101196604000314002010502190000101050000000000A15119000003000015500030000104000000030504579999N0000N999000NNN552450232459N577   000104051224N00N00N00            0000000000000000002012                    1N2 100000NNNN181 Y810110820300000NN          120625BZ                 0 07760
4540002100020203001110002020700300000GA & FLA RR (NO TRACKS)  I-20              2 MI N OF N AUGUSTA      99990002730100I-0002000033324400081580600002301011119660200018950201050110107001115N000000000A12502000003000011000168000503000000011001199999N0000N999000577NN1729153175N5N7   000503031224N00N00N00            0000000000000000002012                    1R1 1000001188121 YN07049420300000NN          120625BZ                 0 09420
4540002100020206001110002020700300000BIG HORSE CR & SOUTHERN  I-20              1 MI N OF VAUCLUSE       99990013850100I-00020000333740000814826000023010101196902000143502010501161300011150000000000A17302000005000011700268001225000000011701269999R0640R0600007757N18731522565597   001225031224N00N00N00            0000000000000000002012                    1R1 1000001188181 Y304620720300000NN          120625BZ                 0 08440
4540002100020207001110002020700300000S.C. 191                 I-20              8 MI NW OF AIKEN         99990015340100I-0002000033380100081465500002301010119690202014350201050113145001115N000000000A11502000003000011300213000640000000011301269999H0531H018021777NN156714687545N7   000640031224N00N00N00            0000000000000000002012                    1R1 1000001188181 YN04620720300000NN          120625BZ                 0 09360
4540002100020208001110002020700300000S.C. 19                  I-20              6 MI N OF AIKEN          99990017780100I-0002000033382100081442600000301010119680204014350201050116130001115N000000000A61502000004000011700162000646000000011701279999H0450H024006575NN177415675645N7   000646021224N00N00N00            0000000000000000002012                    1R1 1000001188181 YN04620720300000NN          120625BZ                 0 08400
4540002100020209001110002020700300000SHAWS CREEK              I-20              6 MI N OF AIKEN          99990019120100I-00020000333851000814310000023010101196802000137502010501161000011150000000000A15104000005000011700091000457000000011701259999N0000N9990005577N1612136956N577   000457021224N00N00N00            0000000000000000002012                    1R1 1000001188181 Y304427520300000NN          120625BZ                 0 08450
4540002100020210001110002020700300000S-980 & ABANDOND RR      I-20              5 MI N OF AIKEN          99990019480100I-0002000033390000081425000002301010119680202013750201050119105001115N000000000A14502000004000012000168000671000000012001299999H0663H049000475NN172015225695N8   000671021224N00N00N00            0000000000000000002012                    1R1 1000001188181 YN04427520300000NN          120625BA                 1 08251
4540002100020211001110002020700300000U.S. 1                   I-20              9 MI N OF AIKEN          99990022070100I-0002000033395900081402700000301010119690204013750201050119145001115N000000000A61502000004000011900174000695000000011901279999H0470H027018775NN177415675645N7   000695021224N00N00N00            0000000000000000002012                    0R1 1000001188181 YN04427520300000NN          120625BZ                 0 08700
4540002100020212001110002020700300000SOUTH EDISTO RIVER       I-20              10 MI NE OF AIKEN        99990026200100I-00020000334136000813641000023010101197002000141002010501191000011150000000000A15104000015000012000091001372000000012001339999N0000N9990005577N1711142356N577   001372021224N00N00N00            0000000000000000002012                    1R1 1000001188181 Y302256020300000NN          120625BZ                 0 08450
4540002100020213001110002020700300000S-49                     I-20              12 MI NE OF AIKEN        99990029450100I-0002000033432100081340300000301010119700202014100201050119145001115N000000000A61302000004000012000213000823000000012001299999H0465H049018577NN188214867665N7   000823021224N00N00N00            0000000000000000002012                    1R1 1000001188181 YN02256020300000NN          120625BZ                 0 09700
4540002100020214001110002020700300000N. EDISTO RIVER          I-20              9 MI SE OF MONETTA       99990037170100I-00020000334754000812824000023010101197002000139002010501191000011150000000000A15104000006000012000091000549000000012001319999N0000N9990005577N1711142356N577   000549021224N00N00N00            0000000000000000002012                    1R1 1000001188181 Y302224020300000NN          120625BZ                 0 08450
4540002100020403001110002040700300000ABANDOND RR (NO TRACKS)  I-20              2 MI N OF AUGUSTA        99990002730100I-0002000033324600081580500002301011119660200018950201050110103010115N000000000A12502000003000011000168000503000000011001199999N0000N029000477NN1729153175N5N7   000503031224N00N00N00            0000000000000000002012                    1L1 1000001188121 YN07049420300000NN          120625BA                 1 09211
4540002100020406001110002040700300000BIG HORSE CR & SOUTHERN  I-20              1 MI W OF VAUCLUSE       99990013850100I-00020000333742000814827000023010101196902000143502010501161300011150000000000A17302000005000011700268001225000000011701269999R0721R0650005778N18731522769597   001225031224N00N00N00            0000000000000000002012                    1L1 1000001188181 Y304620720300000NN          120625BZ                 0 09560
4540002100020407001110002040700300000S.C. 191                 I-20              8 MI NW OF AIKEN         99990015340100I-0002000033380200081465500002301010119690202014350201050113145011115N000000000A11502000003000011300213000640000000011301269999H0470H018021777NN156714687545N7   000640031224N00N00N00            0000000000000000002012                    1L1 1000001188181 YN04620720300000NN          120625BZ                 0 09360
4540002100020408001110002040700300000S.C. 19                  I-20              6 MI N OF AIKEN          99990017780100I-0002000033382200081442600000301010119680204014350201050116130001115N000000000A61502000004000011700162000646000000011701279999H0450H024006545NN177415674645N7341000745021224N00N00N00            0004580001150006872012                    1L1 1000001188181 YN04620720300000NN          120625BA                 1 06801
4540002100020409001110002040700300000SHAWS CREEK              I-20              6 MI N OF AIKEN          99990019120100I-00020000333851000814311000023010101196802000137502010501161000111150000000000A15104000005000011700091000457000000011701259999N0000N9990005577N1612136956N577   000457021224N00N00N00            0000000000000000002012                    1L1 1000001188181 Y304427520300000NN          120625BZ                 0 08450
4540002100020410001110002040700300000S-980 & ABANDOND RR      I-20              5 MI N OF AIKEN          99990019480100I-0002000033390100081425000002301010119680202013750201050119105001115N000000000A14502000004000012000168000671000000012001299999H0663H049000475NN172015225695N7   000671021224N00N00N00            0000000000000000002012                    1L1 1000001188181 YN04427520300000NN          120625BA                 1 08251
4540002100020411001110002040700300000U.S. 1                   I-20              9 MI N OF AIKEN          99990022070100I-0002000033395900081402700000301010119690204013750201050119145001115N000000000A61502000004000011900174000695000000011901279999H0470H027018755NN177415675645N7   000695021224N00N00N00            0000000000000000002012                    1L1 1000001188181 YN04427520300000NN          120625BZ                 0 08500
4540002100020412001110002040700300000SOUTH EDISTO RIVER       I-20              10 MI NE OF AIKEN        99990026200100I-00020000334137000813644000023010101197002000141002010501191000111150000000000A15104000015000012000091001372000000012001339999N0000N9990004577N1711142356N577   001372021224N00N00N00            0000000000000000002012                    1L1 1000001188181 Y302256020300000NN          120625BA                 1 08241
4540002100020413001110002040700300000S-49                     I-20              12 MI NE OF AIKEN        99990029450100I-0002000033432100081340300000301010119700202014100201050119153001115N000000000A61302000004000012000213000823000000012001299999H0465H049015575NN188214865665N7   000823021224N00N00N00            0000000000000000002012                    1L1 1000001188181 YN02256020300000NN          120625BZ                 0 08600
4540002100020414001110002040700300000N. EDISTO RIVER          I-20              9.0 MI SE MONETTA        99990037170100I-00020000334755000812821000023010101197002000139002010501191000011150000000000A15104000006000012000091000549000000012001319999N0000N9990005777N1711142376N567   000549021224N00N00N00            0000000000000000002012                    1L1 1000001188181 Y302224020300000NN          120625BZ                 0 09570
4540002100520001001110052020700350695SAVANNAH RIVER           I-520             SC/GEORGIA LINE          99990015670100I-00520000335316000784236001593010111200404000151002010901253371111151012200305A15602000006000812700424005761000000025302739999N0000N0180007777N5450532479N587   005761021224N00N00N00            0000000000000000002012                    0N1 10000011880812Y805617220300000NN          120625BZ                 0 08000
4540002100520002001110052020700350695SAVANNAH RIVER OVERFLOW  I-520             NORTH AUGUSTA            99990015770100I-00520000335316000784236000063010111200404000151002010903023000111150000000000A19602000010000015200152001524000000030403209999N0000N9990007777N5450532479N587   001524021224N00N00N00            0000000000000000002012                    1N1 1000001188081 Y505617220300000NN          120625BZ                 0 09380
4540002100520003001110052020700350695SOUTHERN RR              I-520             NORTH AUGUSTA            99990016510100I-0052000032452800079381600005301011120040400015100201090311354011115N000000000A12302000001000015200604000604000000030203209999R0716R076000777NN545053247995N7   000604021224N00N00N00            0000000000000000002012                    1N1 1000001188081 YN05617220300000NN          120625BZ                 0 08920
4540002100520008001110052020700350695UNNAMED STREAM           I-520             NORTH AUGUSTA            99990021520100I-0052000033314800081552600006301011120080700010600201090305000000005N000000000A15119000002000099900030000073000000000004579999N0000N999000NNN87189118917NN5N7   000073021224N00N00N00            0000000000000000002012                    0N2 100000NNNN081 Y803943220300000NN          120625BZ                 0*07840
4540002100520204001110052020700350695US 1                     I-520             NORTH AUGUSTA            99990017410100I-0052000034103600080241300005301011120030207007550201090158016011115N000000000A11302000001000015800491000491000000015801689999H0556H018015777NN232423247945N7   000491021224N00N00N00            0000000000000000002012                    1R2 1 00001188081 YN02808620300000NN          120625BZ                 0 09420
4540002100520205001110052020700350695SC 125                   I-520             NORTH AUGUSTA            99990018010100I-0052000033293800081561700006301011120080204004750201090134028011115N000000000A11602000002000013400396000655000000013401439999H0521H030000777NN545053247955N7   000655021224N00N00N00            0000000000000000002012                    1L1 1000001188081 YN01767020300000NN          120625BZ                 0 09570
4540002100520206001110052020700350695S-365                    I-520             NORTH AUGUSTA            99990018620100I-0052000033301160081561570005301011120090202004750201090134043011115N000000000A11502000001000013400347000347000000013401449999H0526H073000777NN545053247795N7   000347021224N00N00N00            0000000000000000002012                    1R2 1000001188081 YN01767020300000NN          120625BZ                 0 09690
4540002100520207001110052020700350695SC 126                   I-520             NORTH AUGUSTA            99990020600100I-0052000033314270081552700006301011120090207004750201090134026011115N000000000A11502000001000013400472000472000000013401449999H0533H043000777NN545053247765N7   000472021224N00N00N00            0000000000000000002012                    0R2 1000001188081 YN01767020300000NN          120625BZ                 0 09870
4540002100520209001110052020700350695L-250                    I-520             NORTH AUGUSTA            99990021780100I-0052000033330500081554300008301011120080304005300201090171002011115N000000000A11502000001000017100290000290000000017101819999H0498H024000777NN232423247635N7   000290021224N00N00N00            0000000000000000002012                    0R2 1000001188081 YN01971620300000NN          120625BZ                 0 09392
4540002100520404001110052040700350695US 1                     I-520             NORTH AUGUSTA            99990017410100I-0052000034103600080241300005301011120030308007550201090183010011115N000000000A11302000001000018300488000488000000018301929999H0556H018015777NN545053247745N7   000488021224N00N00N00            0000000000000000002012                    1L2 1000001188081 YN02808620300000NN          120625BZ                 0 09420
4540002100520405001110052040700350695SC 125                   I-520             NORTH AUGUSTA            99990018010100I-0052000033293800081561700006301011120080204004750201090134028011115N000000000A11602000002000013400396000655000000013401439999H0528H030000777NN545053247955N7   000655021224N00N00N00            0000000000000000002012                    1R1 1000001188081 YN01767020300000NN          120625BZ                 0 09570
4540002100520406001110052040700350695S-365                    I-520             NORTH AUGUSTA            99990018620100I-0052000033301110081561650005301011120090202004750201090134043011115N000000000A11502000001000013400357000357000000013401449999H0526H073000777NN545053247795N7   000357021224N00N00N00            0000000000000000002012                    1L2 1000001188081 YN01767020300000NN          120625BZ                 0 09690
4540002100520407001110052040700350695SC 126                   I-520             NORTH AUGUSTA            99990020600100I-0052000033314370081552730006301011120090207004750201090134026011115N000000000A11502000001000013400472000472000000013401449999H0533H043000777NN545053247765N7   000472021224N00N00N00            0000000000000000002012                    0L2 1000001188081 YN01767020300000NN          120625BZ                 0 09870
4540002100520409001110052040700350695L-250                    I-520             NORTH AUGUSTA            99990021770100I-0052000033330500081554400006301011120080304005300201090171002011115N000000000A11502000001000017100290000290000000017101809999H0498H030000777NN232423247645N7   000290021224N00N00N00            0000000000000000002012                    0L2 1000001188081 YN01971620300000NN          120625BZ                 0 09650
4540002200001002001210000100700300000U S 1 CON INTERCHANGE    US 1              AT N. AUGUSTA            99990000190100US0000100034284100081571500000301011419600402023000201050183316011115N000000000A61201000003000008800158000396009006018302159999H0470H026000577NN245023247555N5   000396031224N00N00N00            0000000000000000002012                    0N2 1000001688041 YN03749020300000NN          120625BZ                 0 09600
4540002200001003001210000100700300000SAVANNAH OVERFLOW & SEC  US 1              N AUGUSTA                99990000360100US00001000332849000815709000023010114196005020230002010502133000111150000000000A16104000006000012100107000640007007020102329999H0549H012000757NN153113155545N5   000640031224N00N00N00            0000000000000000002012                    0N2 1000001688041 YU03749020300000NN          120625BZ                 0 07690
4540002200001004001210000100700300000SOUTHERN RR (NO 1)       US 1              HAMBURG SC               99990000530100US0000100033285500081570200003301011419520500023000201050216337010104N000000000A12101000002000212800137000494012012021902589999R0640R049000575NN256723245555N5   000494031224N00N00N00            0000000000000000002012                    0N2 1019591688041 YN03749020300000NN1380112   120625BL* 138000S80212   0 08010
4540002200001005001210000100700300000LITTLE HORSE CREEK       US 1              CLEARWATER SC            99990004270100US00001000333019000815340000003010114195004000184002010501770000111140000000000A15104000005000017700091000457008008017601989999N0000N9990005577N1603136055N579   000457031224N00N00N00            0000000000000000002012                    0N2 1000001688041 Y502999220300000NN          120625BZ                 0 08700
4540002200001006001210000100700300000BIG HORSE CREEK          US 1              GRANITVILLE              99990010080100US00001000333311000814855000003010114195004000208002010501770450101140000000000A15104000008000017700091000738008008017701989999N0000N9990007477N1630137845N565351000840021224N00N00N00            0004090000200004502012                    0N2 1000001688041 Y303390420300000NN          120625BA                 1 07101
4540002200001007001210000100700300000S C 191                  US 1              GRANITVILLE              99990010330100US0000100033331600081484000000301011419500402020800201050177020011114N000000000A11201000003000017700134000354008008017701989999H0455H020000777NN162113697545N5   000354021224N00N00N00            0000000000000000002012                    0N2 1000001688041 YN03390420300000NN          120625BZ                 0 09600
4540002200001008001210000100700300000SOUTHERN RR (NO. 2)      US 1              5 MI W OF AIKEN          99990010450100US0000100033331700081483200000301011419500400020800201050177030011114N000000000A12201000003000017700134000354008008017701989999R0683R056000777NN162113697565N5   000354021224N00N00N00            0000000000000000002012                    0N2 1000001688041 YN03390420300000NN          120625BZ                 0 09800
4540002200001009001210000100700300000S-753                    US 1              GRANITVILLE              99990010570100US0000100033331800081482600000301011419500402020800201050177010011114N000000000A11201000003000017700134000354008008017701989999H0429H034000777NN162113697545N7   000354021224N00N00N00            0000000000000000002012                    0N2 1000001688041 YN03390420300000NN          120625BZ                 0 09700
4540002200001010001210000100700300000SHAWS CREEK              US 1              3 MI N OF AIKEN          99990019640100US00001000333619000814106000033010106195402000113002010502500000101040000000000A15104104005000025000122000442000000025002609999N0000N9990007477N2567232449N577351000533021224N00N00N00            0002590000130002852012                    0N2 0019821688060 Y301389920300000NN0100112   120625BA  010005507212   1 06971
4540002200001011001210000100700300000BRIDGE CREEK             US 1              10 MI N OF AIKEN         99990026660100US00001000334213000813930000083010106192202000029002010201190000111040000000000A15104000001000011000101000101000000011001189999N0000N9990007457N2288219845N577351000166021224N00N00N00            0000640000030000702012                    0N2 0000001688060 Y500356720300000NNH100015   120625BA  H10BR0201611   1 05001
4540002200001012001210000100700300000BRIDGE CREEK             US 1              10 MI N OF AIKEN         99990026710100US00001000334215000813930000083010106192202000029002010201160000111040000000000A15119000002000011900030000064000000011901529999N0000N999000NNN752333224355N577   000064021224N00N00N00            0000000000000000002012                    0N2 000000NNNN060 Y800356720300000NN          120625BZ                 0 07910
4540002200001013001210000100700300000SOUTH EDISTO RIVER       US 1              13 MI N OF AIKEN         99990028320100US00001000334340000813918000083010106195402000029002010501520000000040000000000A15104104003000809100122000841009009009101109999N0000N9990007457N2360224344N575311000948021224N00N00N00            0009570002390014362012                    0N2 0000001688060 Y300356720300000NNL1C0015   120625BA  L1CBR0201411   1 04471
4540002200025001001210002500700300000U.S. 1                   US 25             1 MI S OF N AUGUSTA      99990000910100US0002500033290100081565200000301011419600205012500201050085016010105N000000000A61502000004000008500177000658000000008501029999H0475H015006555NN272924595435N4341000758031224N00N00N00            0005060001270007592012                    0N2 0000001688041 YN02037520300000NN          120625BA                 2 06402
4540002200025002001210002510700300000I-20                     US 25             5 MI N N AUGUSTA         99990007020100US0002500033335300081561200000301011220080206021700201090351109011115N000000000A11602000002000099900317000600017017035103849999H0541H091034777NN545053247965N7   000600031224N00N00N00            0000000000000000002012                    0N1 1000001188081 YN03906020300000NN          120625BZ                 0 10000
4540002200278001001210027820700300000SOU. RAILROAD            US 278 & SC 125   5 MI SE OF N AUGUSTA     999900032700            33285000081543600002301011619510400009100201050177200011114N000000000A12104000006000017700122000579008008017701989999R0671R031000544NN259423514545N7351000675021224N00N00N00            0003290000160003622012                    0N2 0000001188030 YN01492420300000NN          120625BA                 1 06771
4540002200278001011210027820700300000U S 1                    US 278/SC 125     CLEARWATER               999900023800            33292400081551400000301011619520405009100201050177200000114N000000000A61402000002000017700180000338008008017702019999H0460H012024555NN250423065535N7   000338021224N00N00N00            0000000000000000002012                    0N2 0000001688030 YN01492420300000NN          120625BA                 2 08122
4540002200278001021210027820700300000S C 421                  US 278/SC 125     2 MI E OF N AUGUSTA      999900024500            33292000081551100000301011619520401009100201050177223000104N000000000A61402000002000017700146000290008008017702009999H0452H015000555NN250423155535N7   000290021224N00N00N00            0000000000000000002012                    0N2 0000001688030 YN01492420300000NN          120625BA                 2 08072
4540002200278002001210027820700300000HORSE CREEK              US 278            5 MI SE OF AUGUSTA       99990003550100US00278000332842000815427000023010106195104000091002010501770000111140000000000A15104000008000017700091000732008008017701989999N0000N9990005447N2594235145N577351000834021224N00N00N00            0004060000200004472012                    0N2 0000001188030 Y501119320300000NN          120625BA                 1 06971
4540002200278002011210027820700300000S.C. 28                  US 278/SC 125     10 MI W OF JACKSON       999900075000            33253300081530900000301011619520403007000201050219030000104N000000000A61302000003000017700183000488008008017702029999H0432H034000747NN250422884545N5351000580021224N00N00N00            0002820000140003102012                    0N2 0000001188060 YN01148020300000NN          120625BA                 1 05981
4540002200278003001210027800700300000TOWN CREEK               US 278            5 MI E OF BEACH ISLAND   99990011880100US00278000332434000814854000033010106195002000070002010501250000001140000000000A15119000004000012500030000131000000000000009999N0000N999000NNN45245023245NN567   000131021224N00N00N00            0000000000000000002012                    0N2 000000NNNN060 Y800861020300000NN          120625BZ                 0*08690
4540002200278004001210027800700300000HOLLOW CREEK             US 278            5 MI W OF NEW ELLENTON   99990013660100US00278000332427000814704000053010106200502000043002010501340000111140000000000A15201000004000013400091000317000000013401439999N0000N9990007777N1450132477N577   000317021224N00N00N00            0000000000000000002012                    0N2 0000001188060 Y800683720300000NNH100011   120625BK* H10BR0200711   0 09900
4540002200278005001210027800700300000THREE RUNS CREEK         US 278            4 MI SE OF NEW ELLENTON  99990023800100US00278000332300000813657000423010106194202000043002010200700000111140000000000A15402000008000007300076000610000000007300799999N0000N9990007557N2459227052N577341000707021224N00N00N00            0004150001040006232012                    0N2 0000001688060 Y500683720300000NNL1CE015   120625BA  L1CBR0201911   2 05182
4540002400004001001310000400700300000SHAWS CREEK              SC 4/SC 302       6 MI E OF AIKEN          99990005200100SC00004000333437000813611000053010106198802000034002010501460000111050000000000A15502000005000013400186000927000000013401439999N0000N9990007777N2855259477N575   000927021224N00N00N00            0000000000000000002012                    0N2 0000001188060 YU00540620300000NN          120625BZ                 0 09310
4540002400004002001310000400700300000S. EDISTO RIVER          SC 4/SC302        10 MI E OF AIKEN         99990010320100SC00004000333436000813059000183010106195802000034002010200850000001040000000000A15402000024000008500076001832000000008500949999N0000N9990005437N2450230634N577311001905021224N00N00N00            0020850005210031282012                    0N2 0000001688060 YU00540620300000NNH100015   120625BA  H10BR0200814   1 02621
4540002400004003001310000400700300000CEDAR CREEK              SC4 /SC302        12 MI E OF AIKEN         99990010800100SC00004000333455000813039000023010106193202000034002010200850000000040000000000A15104104001000207900122000183000000008500919999N0000N9990007547N0243017144N367311000256021224N00N00N00            0002800000700004202012                    0N2 0000001688060 Y500540620300000NN          120625BA                 1 03531
4540002400004004001310000400700300000BURCALE CREEK            SC 4              9 MI SW OF WAGENER       99990013190100SC00004000333430000812818000163010106193202000034002010501340000111140000000000A15119000003000013400030000098000000013401839999N0000N999000NNN772450232477N577   000098021224N00N00N00            0000000000000000002012                    0N2 000000NNNN060 Y800540620300000NN          120625BZ                 0 09750
4540002400004005001310000400700300000HUNTER CREEK             SC 4              10 MI W OF SALLEY        99990017880100SC00004000333204000812438000063010106193202000009502010500940000111040000000000A15119000002000009400037000076000000009400989999N0000N999000NNN572450232476N567   000076021224N00N00N00            0000000000000000002012                    0N2 000000NNNN060 Y800151120300000NN          120625BZ                 0 09720
4540002400019001001310001900700300000SOUTHERN RWY (ABANDONED) SC 19             CHESTERFIELD ST AIKEN    99990012410100SC0001900033332600081431500000301011419370200007100201020171015000004N000000000A12104000003000009100107000320012012009101229999R0630R040055757NN254923245345N7341000406021224N00N00N00            0002540000640003812012                    0N2 0019951688040 YN01157320300000NN          120625BA                 2 06502
4540002400028101001310002840700300000SAVANNAH RIVER           SC 28             BEACH ISLAND             999900015300            332618000815448000023010116196802000079502010500911000000051015200259A15402502005001909100543005941004004009101089999N0000N9990005555N2666244154N587   005941021224N00Y48N00    0911    0000000000000000002012                    0R1 00000011880301Y501303820300000NN          120625BZ                 0 06690
4540002400028301001310002820700300000SAVANNAH RIVER           SC 28             BEACH ISLAND             999900015300            332618000815448000023010116198902000079502010501190000111121015200259A15402502003001811900640006044000000011901269999N0000N9990007777N2450232477N597   006044021224N00Y48N00    0911    0000000000000000002012                    0L1 00000011880301Y601303820300000NN1180109   120625BK* 118003907209   0 09930
