454        2SC03001800000000001304690Ballast Creek            Cuba Street       1.1 km S. of Malecon Dr. 999900000000            322004400804019100073737309194102000000502011000670000101140000000000A15104000012000067000091001097002002007300789999N0000N0000006676N1261115746N598381001097071124N  Y60N      0711    0000130000000000132011                    0N2 00    1000050 Y60000552031    NY                                   0 07580
454        2SC08961810000000001304690Archers Creek            Malecon Dr        2.0 km NW of Wake Blvd.  999900000000            322004400804019101993737309195402000020002011000720000101141006500107A55104000019000072000116001127013013008501119999N0000N0000006667N1310118655N598381001127071124N  Y60N      0711    0000390000000000392011                    0N2 00198916001002YT0020502031    NY                                   0 05380
4540000000000000041210002100700900000EDISTO RIVER             US 21             .2 MI NW US 21 & SC 61   99990000400100US00021000331036000804810000083010106190002000014502011301220000000040000000000A15104000008001608500152002155000000008500949999N0000N9990007445N2360225245N567311002218051224N00N00N00            0022390005600033592013                    0N2 0019551688060 Y500230620310000NN                                   1 04901
4540000000000000081210001710601300000S.C.L. RAILROAD          US 17             SHELDON                  99990004620100US0001700032350000080474800002301010219000200007150201130122020000014N000000000A12104000003000013400128000384005005013401439999R0650R038000666NN147712886955N8   000384101224N00N00N00            0000000000000000002013                    1R1 1019591688081 YN01244120310000NN                                   0 09210
4540000000000000091210002100601300000ALBERGOTTI CREEK         US 21             NEAR BEAUFORT            99990026310100US00021000322654000804400000023010114194804000294002011202190000011150000000000A15104000004000018300070000287012012018301959999N0000N9990006546N2351220745N536311000370111224N00N00N00            0005310001330007972013                    1N2 1020021688041 Y804586420310000NN                                   1 04131
4540000000000000181200030100702700000MILL CREEK               US 301 CON        .25 MI N OF ALCOLU       999901000600            334507000801314000003010107190002000001752011201220000000040000000000A15104000002000011000067000134000000011001229999N0000N9990007477N2306223448N567351000202091124N00N00N00            0000690000030000762013                    0N2 0019681688050 Y800025620310000NN                                   1 05621
4540000000000000191310006400602900000JONES SWAMP              SC 64             2.7 MI W OF WALTBR       99990020380100SC00064000325554000804206000053010106190002000039002011201040000000040000000000A15104000006000008500067000402005005008500949999N0000N9990006667N2315224364N568   000402051224N00N00N00            0000000000000000002013                    0N2 0019571688060 Y300620120310000NN                                   0 07120
4540000000000000201210001500503100000SPARROW SWAMP            US 15             2MI W OF LYDIA           99990000480100US00015000341624000800742000053010106190002000049002011301460000000040000000000A15104000004000012200067000268000000012201319999N0000N9990006567N2333225256N568   000268011224N00N00N00            0000000000000000002013                    0N2 0019481688060 Y900779120310000NN                                   0 07320
4540000000000000221210030100503300000BUCK SWAMP               US 301            1.0MI NE OF LATTA        99990005170100US00301000342112000792512000033010102190004000087002011302320000000040000000000A15104000004000021900067000268006006021902349999N0000N9990007778N2405231579N568   000268021224N00N00N00            0000000000000000002013                    0N2 1019671688060 Y901513820310000NN                                   0 09040
4540000000000000231310000900503300000ROPERS MILL BRANCH       SC 9              2.0 MI N OF DILLON       99990009120100SC00009000342730000792306000033010106190002000072002011401340000000040000000000A15104000001000010400082000082000000010401119999N0000N9990007678N2297222554N568   000082021224N00N00N00            0000000000000000002013                    0N2 0019511688060 Y501144820310000NN                                   0 07760
4540000000000000241210007800603500000CATTLE CREEK             US 78             7 MI NW OF ST GEORGE     99990000850100US00078000331318000804154000063010102190002000026002011300980000000040000000000A15104000005000007900067000335005005007900859999N0000N9990007667N1531131563N588341000422071224N00N00N00            0001920000480002882013                    0N2 1019511688081 Y300452420310000NN                                   2 07682
4540000000000000271310005100504100000LITTLE SWAMP             SC 51             1MI NW OF SALEM          99990011490100SC00051000335348000793112000003010106190002000018502011401070000000040000000000A15119000003000007300030000104000000007300859999N0000N999000NNN871666139674N588   000104031224N00N00N00            0000000000000000002013                    0N2 000000NNNN060 Y800294220310000NN                                   0 08000
4540000000000000281310005100504100000BIG SWAMP                SC 51             IN HYMAN                 99990020320100SC00051000335948000793518000003010106200702000018502011901340000111140000000000A15201000004000013400091000366000000013401439999N0000N9990008888N1450132488N588   000366031224N00N00N00            0000000000000000002013                    0N2 0000001188060 Y500294220310000NN                                   0 10000
4540000000000000321210007600505100000JORDON CREEK             US 76             3.5 MI W OF FLOYD        99990004710100US00076000341430000790330000103010102190002000013502011401460000000040000000000A15119000003000007300030000101000000007301549999N0000N999000NNN872450232474N588   000101081224N00N00N00            0000000000000000002013                    1N2 100000NNNN080 Y800234920310000NN                                   0 07720
4540000000000000331210032100605300000BRICKYARD SWAMP          US 321            2MI N OF HARDEEVILLE     99990002710100US00321000321918000810518000033010102190002000035002011401280000000040000000000A15119000003000012800030000104000000012801779999N0000N999000NNN762450232466N568   000104011224N00N00N00            0000000000000000002013                    0N2 101971NNNN061 Y800609020310000NN                                   0 09650
4540000000000000341210032100605300000HOG CRAWL                US 321            5MI N OF HARDEEVILLE     99990006040100US00321000322206000810542000033010102190002000036002011401280000000040000000000A15119000003000012800030000104000000012801779999N0000N999000NNN762450232466N568   000104011224N00N00N00            0000000000000000002013                    0N2 101971NNNN061 Y800626420310000NN                                   0 09650
4540000000000000351210032100605300000DEERFIELD                US 321            6MI N OF HARDEEVILLE     99990006880100US00321000322254000810548000033010102190002000036002011401220000000040000000000A15119000002000012200030000070000000012201719999N0000N999000NNN762450232466N568   000070011224N00N00N00            0000000000000000002013                    0N2 101971NNNN061 Y800626420310000NN                                   0 09650
4540000000000000361210032100605300000BAGSHAW SWAMP            US 321            1.5MI S OF TILLMAN       99990010920100US00321000322624000810612000083010102190002000036002011401220000000040000000000A15119000002000012200030000070000000012201719999N0000N999000NNN752450232456N568   000070011224N00N00N00            0000000000000000002013                    0N2 101971NNNN061 Y800626420310000NN                                   0 08450
4540000000000000371210032100605300000MILL BRANCH              US 321            1.2MI S OF TILLMAN       99990011250100US00321000322642000810618000183010102190002000036002011401220000000040000000000A15119000003000012200030000104000000012201719999N0000N999000NNN762450232466N568   000104011224N00N00N00            0000000000000000002013                    0N2 101971NNNN061 Y800626420310000NN                                   0 09400
4540000000000000391210052130405700000S.C.L. RAILROAD          US 521            11.5 MI N OF LANCASTER   99990036100100US0052100034543200080484200002301010219000200007100201120134000001114N000000000A12104104003000111100113000396005005011101269999R0688R028000655NN252223605645N8   000396091224N00N00N00            0000000000000000002013                    0L1 1019621688060 YN01235420310000NN                                   0 08120
4540000000000000431210007600506700000SMITH BRANCH             US 76             4 MI NE OF MARION        99990012250100US00076000341112000792100000023010102190004000116002011402800000001140000000000A15119000004000014600030000137000000014603329999N0000N999000NNN881306118042N588341000206061224N00N00N00            0000500000130000752013                    1N2 101975NNNN080 Y802018420310000NN                                   2 05622
4540000000000000441210007600506700000PRICE SWAMP              US 76             4 MI E OF MULLINS        99990021800100US00076000341200000791124000023010102190002000037002011501340000001140000000000A15119000003000011600061000158000000011601409999N0000N999000NNN872450232475N588   000158061224N00N00N00            0000000000000000002013                    1N2 101957NNNN080 Y800643820310000NN                                   0 09570
4540000000000000451210007600506700000LITTLE PEE DEE RIVER     US 76             3.5 MI E OF MULLINS      99990022940100US00076000341230000791018000033010102190002000030002011301220000000040000000000A55104000016000009200067001073005005009201089999N0000N9990005557N1387123454N588   001073061224N00Y60N00    0612    0000000000000000002013                    1N2 1019571688080 Y300522020310000NN                                   0 05650
4540000000000000461210030100506700000AGNAY SWAMP              US 301            3 MI N OF PEE DEE        999900024100            341300000793054000053010107190002000027002011501280000000040000000000A15119000003000013700030000104000000013702239999N0000N999000NNN872450232479N588   000104061224N00N00N00            0000000000000000002013                    0N2 000000NNNN050 Y800394220310000NN                                   0 09640
4540000000000000471210050100506700000REEDY CREEK              US 501            4 MI N OF HORRY CO       99990019370100US00501000340454000791848000023010102190002000171002011401220000001140000000000A15119000003000014600030000107000000014603439999N0000N999000NNN871369122559N588   000107071224N00N00N00            0000000000000000002013                    0N2 101972NNNN061 Y802975420310000NN                                   0 08600
4540000000000000481310004100506700000BACK SWAMP               SC 41             4 MI NE OF RAINS         99990020110100SC00041000340806000791606000023010106190002000027002011401220000000040000000000A15119000003000007300030000104000000007301529999N0000N999000NNN771630137872N588341000169061224N00N00N00            0000840000210001262013                    0N2 000000NNNN060 Y800429320310000NN                                   2 07772
4540000000000000501210000100506900000WHITES CREEK             US 1              2.5 MI NW OF WALLACE     99990004210100US00001000344518000795306000033010102190002000036002011201160000000040000000000A55104000004000009800076000305005005009801149999N0000N9990006658N1666139654N588   000305021224N00N00N00            0000000000000000002013                    1N2 1019541688080 Y300626420310000NN                                   0 07640
4540000000000000511310000900506900000PHILLIS CREEK            SC 9              2MI SE OF WALLACE        99990004280100SC00009000344218000794830000023010102190002000080002011501460000000050000000000A15119000004000014600030000137000000014601469999N0000N999000NNN871423125269N588   000137031224N00N00N00            0000000000000000002013                    0N2 101976NNNN060 Y801392020310000NN                                   0 08990
4540000000000000521360000900506905680MC/CALL MILL CK          SC 9 BUS          BENNETTSVILLE            999900013900            343706000794112000023010116190004000083002011201220000000040000000000A55104000003000012200101000302015015012201659999N0000N9990007558N2396227052N588341000387021224N00N00N00            0001590000400002392013                    0N2 0019411688060 Y501170320310000NN                                   2 06162
4540000000000000531310000940506900000NAKED CREEK              SC 9              4 MI SE OF WALLACE       99990007780100SC00009000344054000794518000023010102190002000040002011401220000000040000000000A55104000003000011000091000274005005011001269999N0000N9990006658N2405222556N588   000274021224N00N00N00            0000000000000000002013                    0L1 1019621688060 Y900696020310000NN                                   0 07030
4540000000000000541310003820506900000ROGERS CREEK             SC 38             5 MI S OF BLENHEIM       99990003970100SC00038000342542000793724000023010102200102000024502011501520110111150000000000A15201000004000013400091000366000000013401439999N0000N9990008888N1558140589N588   000366021224N00N00N00            0000000000000000002013                    0R1 1000001188060 Y500426320310000NN                                   0 09480
4540000000000000561310038500506900000CROOKED CREEK            SC 385            2 MI NE OF BENNETTSVILLE 999900060200            344000000793924000053010107190002000011502011300910000000040000000000A15119000002000009100030000070000000009100919999N0000N999000NNN872333224365N588   000070021224N00N00N00            0000000000000000002013                    0N2 000000NNNN050 Y800167920310000NN                                   0 08440
4540000000000000571410037300506900000CROOKED CREEK            C-35-373          2 MI N BENNETTSVILLE     999900018300            344014000793953000083020209190001000000602011100490000000050000000000A15302000002000004900043000085000000004900529999N0000N9990005556N2297218053N568   000085111212N00N00N00            0000000000000000002013                    0N3 0000001188000 Y500007720310000NN                                   2 05572
4540000000000000611210002100707508245PEN BRANCH               US 21             0.25MI S OF BRANCHVILLE  99990004480100US00021000331419000804852000083010106190002000014002011501160000000040000000000A15119000002000015800030000064000000015801659999N0000N999000NNN552450232459N567   000064121124N00N00N00            0000000000000000002013                    0N2 000000NNNN060 Y800222620310000NN                                   0 08540
4540000000000000621310003900707500000COOPER SWAMP             S-38-39           9 MI S ORANGEBURG        999900052100            332057000805444000083010107190002000011002011201160000111040000000000A15119000004000009800030000131000000009801049999N0000N999000NNN752333224355N577   000131011324N00N00N00            0000000000000000002013                    0N2 000000NNNN050 Y800160620310000NN                                   0 08000
4540000000000000711310172200107900000JACKSON CREEK            S-40-1722         EDGEWATER_DR_/COLUMBIA   999900011800            340530000805706000023010119190002000007502011100910000000050000000000A15119000003000009100027000088000000014601559999N0000N999000NNN870297216249N588   000088021312N00N00N00            0000000000000000002013                    0N2 000000NNNN020 Y800096020310000NN                                   0 07370
4540000000000000721410045400107916000UNNAMED STREAM           C-40-454          WHALEY ST/COLUMBIA       999900004200            335916000810124000023020217190002000086002011001520450000040000000000A15119000002000010700030000064012000010703549999N0000N999000NNN770297018044N578   000064031212N00N00N00            0000000000000000002013                    0N2 0000001688020 Y801556620310000NN                                   0 07410
4540000000000000731410089100107916000STREAM                   C-40-891          COLUMBIA / CATAWBA ST.   999900000900            335922000810136000023020219190002000001382011000760000111140000000000A15119000002000007700030000064000000007700919999N0000N999000NNN870297216255N578   000064031212N00N00N00            0000000000000000002013                    0N2 0000001188020 Y800017720310000NN                                   0 07530
4540000000000000741410239100107926305GILLS CREEK              C-40-2391         .12 MI W OF S-985        999900001200            340111000805749001993020219190002000001382011100730000100050000000000K15101000006000006900043000256000000006900879999N0000N9990004416N1000100004N066311000336011312N00N00N00            0002680000670004022013                    0N2 0000002188020 Y300017720310000NN                                   1 02041
4540000000000000751310004500308300000NORFOLK SOUTHERN RR      S-42-45           0.5MI SW COWPENS         999900001500            35013000081483000002301011919000200001750201110079000000004N000000000P12302702001000706000152000536000000006000639999R0671R034000666NN004500452250N2311000631081212N00N00N00            0006370001590009562013                    0N2 0019958688020 YN00224020310000NN                                   1 02251
4540000000000000761310006000308300000TRIB TO N.TYGER RIVER    S-42-60           1.0 MI SE WELLFORD       999900077200            345652000820528000053010117200402000013002011501070000111140000000000A15502000001000010400280000280000000010401139999N0000N9990008888N1450132486N588   000280091124N00N00N00            0000000000000000002013                    0N2 0000001108050 Y500266520310000NN                                   0 09970
4540000000000000771310155000308300000FAIRFOREST CREEK         S-42-1550         IN SPARTANBURG           999900004900            345630000815747000003010117190002000012502011401100000000040000000000A15119000003000010700037000122000000010701079999N0000N999000NNN775450532476N568   000122101124N00N00N00            0000000000000000002013                    0N2 001947NNNN020 Y800256320310000NN                                   0 09700
4540000000000000811310028000304500000TRIB TO REEDY RIVER      S-23-280          1.1MI S TRAVELERS REST   999900009300            345700000822630000003010117191002000018872011200700000000040000000000A15101000001000006200076000091000000006200699999N0000N9990007778N2306223462N586341000155061124N00N00N00            0000890000220001342013                    0N2 0000001688020 Y500407620310000NN                                   2 06922
4540000000000000821410446100304530850REEDY RIVER              C-23-4461         S MAIN ST-GREENVILLE     036300000500            345046000822407000023020217191004000076002011101100000000040000000000P57111000003000015300274000823028028015302229999R0505R0220237778N01350099232088311000929061212N00N00N00            0011750002940017632013                    0N2 000000NNNN030 Y501641620310000NN                                   1 03571
4540000000000000831310031600304500000HUFF CREEK               S-23-316          5.2MI SW MAULDIN         999900053400            344248000822112000023010107191202000011502011200730000000040000000000A15119000001000005600113000113000000005600629999N0000N999000NNN860297018052N588341000179071124N00N00N00            0001110000280001672013                    0N2 0000001688050 Y800423220310000NN                                   2 05902
4540000000000000841410202700107916000UNAME STREAM             C-40-2027(PICKENS)0.5 MI E. 0F SC 48       999900008600            335941000810125000023020217191203000088002011101310000000050000000000A15119000003000010700021000073012012010702829999N0000N999000NNN772297218042N578341000135031212N00N00N00            0000700000180001052013                    0N2 0000001688020 Y801592820310000NN                                   2 05672
4540000000000000851410078700308368290S.C.L. RAILROAD          C-42-787          FOREST ST IN SPARTANBURG 048800017800            34570000081563200002304041719130200003600201120070000000002N000000000P52310000001000007200311000311016016007200750488R0480R030000646NN009900992220N8311000396101212Y12N00Y121012    01130004340001090006512013                    0N2 0000003900020 YN00738020310000NN                                   1 00841
4540000000000000871210002500203722795BEAVERDAM CK OVERFLOW    US 25             IN EDGEFIELD S OF SC 23  99990016780100US00025000334648000815515000003010114191502000061002011401100450111140000000000A15119000003000009200040000131000000009201299999N0000N999000NNN852450232453N568341000199011224N00N00N00            0001240000310001862013                    0N2 100000NNNN080 Y800951620310000NN                                   2 07002
4540000000000000881310010600107900000ABANDONED RAILROAD       S-40-106          GADSON ST COLA           999900002000            34002100081025500000301011719150200002600201120174000010004N000000000A12119000001000099900091000091027027033503419999R0714R012000NNNN5233322435935N8341000155021324N00N00N00            0000000000000000002013                    0N2 000000NNNN020 YN00470620310000NN                                   2 07552
4540000000000000891410048400107900000SCL RR                   C-40-484          IN COLUMBIA              999900000500            34001100081022400002302021919150500000850201120457300000005N000000000A12104000001000013000076000076018017023404579999R0610R012000767NN235121444735N8341000139031224N00N00Y24        09120000000000000000002013                    0N2 0000001688020 YN00108820310000NN                                   2 06102
4540000000000000921310004900402100000NORFOLK SOUTHERN RR      S-11-49           3.0MI NE GAFFNEY         999900023300            35051900081362400000301011920040200000775201150088040011114N000000000A12402000001000010400475000475000000010401139999R0701R046000888NN145013248665N6   000475111224N00N00N00            0000000000000000002013                    0N2 0000001188060 YN00099220310000NN                                   0 10000
4540000000000000961310096900304500000FALL CREEK               S-23-969          14.4 MI N TRAVELERS REST 999900071300            351024000822412000053010108191802000002752011400910000000040000000000A15119000001000006000104000104000000006000699999N0000N999000NNN872369227063N578341000169051124N00N00N00            0000780000200001172013                    0N2 000000NNNN070 Y800038220310000NN                                   2 07382
4540000000000000971410499400304530850SOUTHERN RR              C-23-4994         GREENVILLE (QUEEN ST.)   999900000500            34511000082251400002327270919180200000126201110067000000004N000000000P12103702003000106100183000497015015006101119999R0632R029000444NN002700272440N4311000590071212Y12N00N000712        0004700001180007052013                    0N2 0000001688060 YN00016120310000NN                                   1 01821
4540000000000001041310013000402100000SOUTHERN RAILROAD        S-11-130          CITY OF GAFFNEY          999900008300            35041600081390800000301011919190200000700201120128000000004N000000000A12104104001000209100146000311000012009101149999R0630R030000666NN160313606645N8   000311111224N00N00N00            0000000000000000002013                    0N2 0019701688020 YN00089620310000NN                                   0 09000
4540000000000001071310093300200700000THREE & TWENTY CREEK     S-4-933           9.7MI NW ANDERSON        999900004400            343633000824544000003010119192002000016882011300910000000040000000000A55111000004000011000122000488012012011001409999N0000N9990007758N2333224356N578   000488011324N00N00N00            0000000000000000002013                    0N2 0019721688060 Y900216120310000NN                                   0 07850
4540000000000001081310093300200700000MILLWEE CREEK            S-4-933           9.5MI NW ANDERSON        999900001500            343621000824540000003010119192002000016882011501040000000050000000000A15119000001000013400064000070000000013401409999N0000N999000NNN762450232468N578   000070011324N00N00N00            0000000000000000002013                    0N2 001972NNNN060 Y800216120310000NN                                   0 09700
4540000000000001091310009700402300000ROCKY CREEK              SC 97             2.5MI NW OF GREAT FALLS  99990031700100SC00097000343519000805636000033010106192002000020002011301220000011140000000000A15111000007000008000213001259000000008000969999N0000N9990005546N2333224344N547311001351031224N00Y60N00    0709    0013640003410020462013                    0N2 0019541688060 Y300318020310000NN                                   1 04471
4540000000000001101210002900304530850BRUSHY CREEK             US 29             1.0MI S OF GREENVILLE    99990004480100US00029000344936000822442000003010114192004000214002011401980000000040000000000A55119000001000019800076000085012012019804579999N0000N999000NNN762450232467N568   000085091224N00N00N00            0000000000000000002013                    0N2 101958NNNN040 Y804044620310000NN                                   0 09700
4540000000000001121410216700304500000TRIB TO SALUDA RIV       C-23-2167         8.1 MI N TRAVELERS REST  999900015000            350456000822652000023020209192002000001262011100610000000040000000000A15101000001000006000079000085000000006000659999N0000N9990005668N2306214443N576341000149061212N00N00N00            0000560000140000842013                    0N2 0000001688060 Y500016120310000NN                                   2 05012
4540000000000001131410044000505100000HALFWAY SWAMP            C-26-440          7.0 MI S OF CONWAY       999900007500            334505000790456000023020209192002000001262011100520000000040000000000A15119000003000006700030000101000000006700739999N0000N999000NNN772297218054N598   000101111212N00N00N00            0000000000000000002013                    0N2 0000001188060 Y800016120310000NN                                   0 06720
4540000000000001141210017800307700000RICES CREEK              US 178            3MI S OF PICKENS         999900212200            345030000824230000003010116192002000071002011201040000111140000000000A15119000004000010400034000143000000010401109999N0000N999000NNN751639138754N588   000143051224N00N00N00            0000000000000000002013                    0N2 001958NNNN060 Y800852020310000NN                                   0 08700
4540000000000001151310000800307700000RICES CREEK              SC 8              3MI NW OF EASLEY         999900072300            345048000823912000023010116192004000132002011301890000000040000000000A55104000004000017100091000305012012017101999999N0000N9990007778N2333224365N588   000305061224N00N00N00            0000000000000000002013                    0N2 0019651688060 Y901584020310000NN                                   0 08200
4540000000000001161210017640308300000LAWSONS FORK CREEK       US 176            4.0 MI E INMAN           99990017700100US00176000350113000820131000023010114192002000088002011201010000000040000000000A15111000003000008000091000283000000008000889999N0000N9990006668N0297017142N588341000367021224N00N00N00            0002570000640003862013                    0L1 1000001688040 Y303071220310000NN                                   2 05502
4540000000000001171210022100308368290SOUTHERN RAILWAY         US 221            CITY OF SPARTANBURG      99990025560100US0022100034571700081560500000301011419200400016100201120168000000004N000000000A52104000003000017100107000305034034017102479999R0615R024000555NN029721985545N8341000390021224N00N00N00            0000940000240001412013                    0N2 1019351688040 YN05618920310000NN                                   0 06750
4540000000000001181310003800308300000LAWSON FORK CREEK        S-42-38           2.0 MI W INMAN           999900015700            350222000820648000023010107192002000022002011200730000000040000000000A15119000001000007300064000070000000007301169999N0000N999000NNN772333224362N566341000132091124N00N00N00            0000990000250001492013                    0N2 001955NNNN050 Y801436620310000NN                                   2 07022
4540000000000001191310003800308300000INMAN MILL CREEK         S-42-38           0.6MI W INMAN            999900004400            350237000820601000023010117192002000022002011201220000000040000000000A15119000001000012200064000064000000012201229999N0000N999000NNN752333224356N566   000064091124N00N00N00            0000000000000000002013                    0N2 001955NNNN050 Y800451020310000NN                                   0 07820
4540000000000001201310006400602900000CHESSEY CREEK            SC 64             6.1 MI S OF WALTBR       99990031230100SC00064000325006000803436000143010106192102000052002011201220000011140000000000A15104000004000012200067000268000000012201289999N0000N9990006566N2315224355N568   000268041224N00N00N00            0000000000000000002013                    0N2 0019421688060 Y500826820310000NN                                   0 07610
4540000000000001211310006400602900000HORSE SHOE CREEK         SC 64             5 MI NW OF JACKSONBORO   99990034250100SC00064000324848000803200000323010106192102000048002011201220000011140000000000A15104000002000012200067000134000000012201289999N0000N9990006667N2315224366N568   000134041224N00N00N00            0000000000000000002013                    0N2 0019431688060 Y500763220310000NN                                   0 08460
4540000000000001221310003400503100000INDIAN CREEK             SC 34             IN DARLINGTON            999900150100            341742000795324000023010116192102000046002011501830000000040000000000A55119000003000018300037000122000000018302829999N0000N999000NNN772450232479N566   000122011224N00N00N00            0000000000000000002013                    0N2 001972NNNN080 Y500648620310000NN                                   0 09660
4540000000000001231210007800603500000INDIAN FIELD SWAMP       US 78             4 MI SE OF ST GEORGE     99990013160100US00078000331000000802954000193010102192102000049002011401160000011140000000000A15104000005000013400067000335000000013401379999N0000N9990006667N1531131567N588   000335071224N00N00N00            0000000000000000002013                    0N2 1019681688080 Y500852620310000NN                                   0 09530
4540000000000001241210000100700300000BRIDGE CREEK             US 1              10 MI N OF AIKEN         99990026660100US00001000334213000813930000083010106192202000030002011201190000111040000000000A15104000001000011000101000101000000011001189999N0000N9990007457N1513130645N577351000166021224N00N00N00            0000640000030000702013                    0N2 0000001688060 Y500369020310000NN                                   1 06431
4540000000000001251210000100700300000BRIDGE CREEK             US 1              10 MI N OF AIKEN         99990026710100US00001000334215000813930000083010106192202000030002011201160000111040000000000A15119000002000011900030000064000000011901529999N0000N999000NNN752333224355N577   000064021224N00N00N00            0000000000000000002013                    0N2 000000NNNN060 Y800369020310000NN                                   0 07900
4540000000000001261210027800700500000DUCK CREEK               US 278            3.5 MI SE ALLENDALE      99990011140100US00278000325822000811526000033010106192204000059002011202010000000040000000000A15119000002000024400030000067000000024402509999N0000N999000NNN481432125269N557   000067051224N00Y60N00    0911    0000000000000000002013                    0N2 001975NNNN060 Y800938120310000NN                                   0 08880
4540000000000001271210005210601500000LAUREL CREEK             US 52             10.2MI SW MONCKS CRN     99990004540100US00052000330258000800201000023010102192202000131502011201340000011140000000000A15104000002000012200067000134000000012201289999N0000N9990006664N1657139667N568   000134101124N00N00N00            0000000000000000002013                    0R1 1019411688081 Y802459120310000NN                                   0 09370
4540000000000001281210005210601500000LAUREL CREEK SWAMP       US 52             10.2MI SW MONCKS CRN     99990004590100US00052000330200000800201000023010102192202000131502011201340000011140000000000A15104000002000012200067000134002002012201289999N0000N9990006667N1657139667N568   000134101124N00N00N00            0000000000000000002013                    0R1 1019411688081 Y802459120310000NN                                   0 09370
4540000000000001291310079100601500000PROVIDENCE CREEK         S-8-791           5.4 MI N GOOSE CREEK     999900011600            330412000800118000053010107192202000028002011201220000000040000000000A15104000002000012200067000134002002012201279999N0000N9990007667N2333226166N568   000134121224N00N00N00            0000000000000000002013                    0N2 0019411688050 Y500478820310000NN                                   0 09120
4540000000000001301310079100601500000SKILBERT SWAMP           S-8-791           7.4 MI N GOOSE CREEK     999900043900            330654000800112000053010107192202000028002011201100000000040000000000A15104000002000012200067000134002002012201279999N0000N9990006667N2333226166N568   000134121224N00N00N00            0000000000000000002013                    0N2 0019411688050 Y500478820310000NN                                   0 09120
4540000000000001311310079100601500000WAPPOOLA SWAMP           S-8-791           4.5 MI S MONCKS CORNER   999900055600            330748000800112000033010107192202000028002011201100000000040000000000A15104000002000012200067000134002002012201279999N0000N9990006457N2333226146N568351000202121224N00N00N00            0000790000040000872013                    0N2 0019411688050 Y500478820310000NN                                   1 06421
4540000000000001321310079100601500000N. MULBERRY CREEK        S-8-791           2.8 MI S MONCKS CORNER   999900073600            330924000800106000063010117192202000028002011201100000000040000000000A15104000002000012200067000134002002012201279999N0000N9990006467N2333226146N568351000202121224N00N00N00            0000790000040000872013                    0N2 0019411688050 Y500394820310000NN                                   1 06361
4540000000000001331310082300402500000LYNCHES RIVER            S-13-823          5.7 MI NW OF JEFFERSON   999900008000            344145000802829000023010109192202000001202011101070000000030000000000A15111101003000405500320001106000000005500649999N0000N9990005666N2450232463N566341001207101212N00N00N00            0004950001240007432013                    0N2 0000001188000 Y500015420310000NN                                   2 07702
4540000000000001341310006400602900000PRINGLE CREEK            SC 64             6 MI S OF WALTBR         99990031090100SC00064000325006000803442000143010106192202000052002011201220000011140000000000A15104000003000012200067000201000000012201289999N0000N9990005567N2315224355N568   000201041224N00N00N00            0000000000000000002013                    0N2 0019421188060 Y500826820310000NN                                   0 07500
4540000000000001351410138200204700000CORONACA CREEK           C-24-1382         4.9 MI NE OF G'WD        999900002500            341434000820609000003020209192202000001262011200730000000040000000000A15104000008000005500131000600000000005500649999N0000N9990005558N0297018053N588311000698031224N00N00N00            0005550001390008332013                    0N2 0000001688000 Y500016120310000NN                                   2 04822
4540000000000001361310000400707500000GOODLAND CREEK           SC 4              2MI E OF SPRINGFIELD     99990006670100SC00004000332936000811442000053010106192202000018502011201160000000040000000000P15104000001000007300122000122000000007300839999N0000N9990007457N0297018944N566311000189121212N00N00N00            0001910000480002872013                    0N2 0019371688060 Y300294220310000NN                                   1 03841
4540000000000001371310000400707500000ROCKY SWAMP CREEK        SC 4              8MI W OF NEESES          99990010240100SC00004000333038000811119000033010106192202000018502011201160000000040000000000A15119000002000011600030000064000000011601229999N0000N999000NNN551558133356N567   000064121124N00N00N00            0000000000000000002013                    0N2 000000NNNN060 Y800294220310000NN                                   0 08570
4540000000000001381310000400707500000BOLEN MILL CREEK         SC 4              6MI W OF NEESES          99990010840100SC00004000333038000811042000033010106192202000018502011301280000101040000000000A15104000002000013300091000183000000013301429999N0000N9990007777N2333224367N567   000183121124N00N00N00            0000000000000000002013                    0N2 0019761688060 Y500294220310000NN                                   0 09120
4540000000000001401310004300308300000SHOALLY CREEK            S-42-43           4.5MI N SPARTANBURG      999900003300            350044000815658000023010117192202000078002011500980000000040000000000A15111000001000009800162000162000000007300859999N0000N9990007777N2450232472N578341000233101124N00N00N00            0001750000440002632013                    0N2 001959NNNN020 Y801599020310000NN                                   2 07712
4540000000000001411310004300308300000TRIB-PACOLET RIV         S-42-43           6.5 MI SW CHESNEE        999900048400            350422000815545000003010117192202000036002011200980000000040000000000A15119000002000009800040000076000000009801989999N0000N999000NNN772450232474N578   000076091124N00N00N00            0000000000000000002013                    0N2 001958NNNN050 Y800738020310000NN                                   0 09500
4540000000000001451310040700308300000HACKER CREEK             S-42-407          12.0 MI SE WOODRUFF      999900007100            343935000815048000003010109192202000001202011200790000000040000000000A15111000001000005700094000094000000005700629999N0000N9990006667N0297018053N587341000159101124N00N00N00            0000630000160000952013                    0N2 00000016NN000 Y500015420310000NN                                   2 05922
4540000000000001461310086600308300000HOLSTON CREEK            S-42-866          1.0 MI S CAMPOBELLO      999900023700            350628000820824000003010108192202000004282011400730200000040000000000A15111000001000006100137000137000000006100669999N0000N9990006666N2333223463N578341000206081124N00N00N00            0001110000280001672013                    0N2 0000001688070 Y500059520310000NN                                   2 06922
4540000000000001471310086600308300000MOTLOW CREEK             S-42-866          1.0 MI S CAMPOBELLO      999900022200            350633000820830000003010108192202000004282011400730200000040000000000A15111000001000006100079000079000000006100669999N0000N9990006666N2324223463N578341000142081124N00N00N00            0000770000190001162013                    0N2 0000001688070 Y500059520310000NN                                   2 06922
4540000000000001481210017600408700000PADGETTS CREEK           US 176            2.6 MI N OF NEWBERRY CO L99990028910100US00176000343254000813612000033010106192202000022002011301070000001140000000000A15104104004000008700067000268005005008701019999N0000N9990005546N2333225244N578311000350091224N00N00N00            0003530000880005302013                    0N2 0019551688061 Y300349820310000NN                                   1 05081
4540000000000001491210005200601500000SANTEE RV SWP (NO.1)     US 52             17.4 MI N MONCKS CRN     99990036010100US00052000332645000795900000353010102199904000034002011502530000111040000000000A15201000006000025300091000549000000025302629999N0000N9990006677N1450132469N568   000549101124N00N00N00            0000000000000000002013                    1N2 1000001188080 Y500591620310000NN                                   0 09240
4540000000000001501210005200601500000SANTEE RV SWP (NO.2)     US 52             18.8MI NE MONCKS CRN     99990037210100US00052000332746000795831000353010102199904000034002011502530000111140000000000A15201000025000025300091002286000000025302629999N0000N9990006677N1450132469N588   002286101124N00N00N00            0000000000000000002013                    0N2 1000001188080 Y500591620310000NN                                   0 09440
4540000000000001511210005200601500000SANTEE RV SWP (NO.3)     US 52             20.3MI NE MONCKS CRN     99990038740100US00052000332905000795755000353010102200004000034002011502530000111140000000000A15201000046000025300091004206000000025302629999N0000N9990006677N1450132469N588   004206101124N00N00N00            0000000000000000002013                    0N2 1000001188080 Y500591620310000NN                                   0 09440
4540000000000001521210001500503100000BOGGY GULLY SWAMP        US 15             1MI E OF LYDIA           99990002820100US00015000341748000800554000003010106192302000049002011401460000000040000000000A15119000002000015600037000082000000015601629999N0000N999000NNN772450232479N568   000082011224N00N00N00            0000000000000000002013                    0N2 000000NNNN040 Y800779120310000NN                                   0 09700
4540000000000001531310046200605300000BEES CREEK               SC 462            3.5MI S OF COOSAWHATCHIE 999900212200            323236000805448000233010107192302000029002011200980000011140000000000A15104000004000009100067000265005005009101019999N0000N9990006447N2360227044N568311000347021224N00N00N00            0003500000880005252013                    0N2 0019651688050 Y500423420310000NN                                   1 04471
4540000000000001541310003400207100000HELLERS CREEK            SC 34             12.4 MI N E OF NEWBERRY  99990034590100SC00034000342242000812625000033010106192302000027002011201160000011040000000000A15104000004000007300067000268000000007300859999N0000N9990004545N2441229742N597311000350071224N00N00N00            0003530000880005302013                    0N2 0000001688060 Y500429320310000NN                                   1 04861
4540000000000001551310000400707500000FOUR MILE CREEK          SC 4              4MI W OF ORANGEBURG      99990026370100SC00004000332949000805601000053010106192302000067002011501160000000040000000000A15119000003000011600030000098000000011001169999N0000N999000NNN471531131574N567   000098121124N00N00N00            0000000000000000002013                    0N2 000000NNNN060 Y801065320310000NN                                   0 09310
4540000000000001561310002000308300000TRIB TO PACOLET RIVER    S-42-20           6MI NW INMAN             999900004500            350709000820843000003010109192302000010642011200730000000040000000000A15111000002000006200079000165000000006200689999N0000N9990006667N2324223462N574341000236081124N00N00N00            0001350000340002032013                    0N2 0000001688060 Y500136220310000NN                                   2 06722
4540000000000001571210052100108500000RAFTING CREEK            US 521            12 MI NW OF SUMTER       99990025390100US00521000340442000803109000033010102192302000064002011401220000101140000000000A15119000003000012200030000101000000012201349999N0000N999000NNN762450232465N578   000101051224N00N00N00            0000000000000000002013                    1N2 100000NNNN080 Y801644820310000NN                                   0 09610
4540000000000001591310003200200100000SHANKLIN CREEK           S-1-32            8.0 MI SW ABBEVILLE      999900057900            340922000823104000033010107192402000001502011100850000000040000000000A15204000005000005500158000524000000005500649999N0000N9990005568N2414225253N596341000618101212N00N00N00            0002550000640003832013                    0N2 0000001688050 Y900021920310000NN                                   2 05972
4540000000000001601310003200200100000CALHOUN CREEK            S-1-32            5.2MI SW ABBEVILLE       999900096300            340907000822752000083010107192402000005502011200850000000040000000000A15104000004000005500131000332000000005500639999N0000N9990005558N2486229752N596341000419101224N00N00N00            0002620000660003932013                    0N2 0000001688050 Y500080320310000NN                                   2 06422
4540000000000001611310000500700300000HOLLOW CREEK             S-2-5             2.0 MI N JACKSON         999900029400            332036000814921000033010107196002000013502011100980000111040000000000P15104000003000009800091000274000000009801029999N0000N9990005457N0189014445N177311000357021312N00N00N00            0003600000900005402013                    0N2 0000001688050 Y800197120310000NN                                   1 04561
4540000000000001621210005200503100000HORSE CREEK              US 52             7MI N OF DARLINGTON      99990014750100US00052000342454000795806000033010102192402000036002011401190000000040000000000A15119000003000011300030000104000000011301569999N0000N999000NNN771396123465N568   000104011224N00N00N00            0000000000000000002013                    1N2 100000NNNN081 Y800626420310000NN                                   0 08460
4540000000000001631210005200503100000BUCKHOLTZ CREEK          US 52             8MI N OF DARLINGTON      99990017690100US00052000342724000795224000053010102192402000036002011401250000000040000000000A15119000003000012500037000122000000012501629999N0000N999000NNN771333119856N568   000122011224N00N00N00            0000000000000000002013                    1N2 100000NNNN081 Y800626420310000NN                                   0 07840
4540000000000001651310007200405700000TRIB LITTLE LYNCHES RV   S-29-72           1MI NE HEATH SPRINGS     999900008400            343606000803943000053010109192402000004032011200940000000040000000000A15104000001000006100122000128000000006100689999N0000N9990006668N0297018053N566341000196081124N00N00N00            0001060000270001592013                    0N2 0000001688060 Y500051620310000NN                                   2 05912
4540000000000001661310007200405700000TRIB LITTLE LYNCHES RV   S-29-72           2MI NE LANCASTER         999900016300            343634000803910000053010109192402000004032011200910000000040000000000A15104000001000006100091000094000000006100669999N0000N9990006668N0297018053N566341000159081124N00N00N00            0000860000220001292013                    0N2 0000001688060 Y500051620310000NN                                   2 05912
4540000000000001671310000600205900000RABON CREEK              S-30-6            8.0 MI SW LAURENS        999900103700            342451000820631000053010107192402000004252011100910000000040000000000A15111000002000006000165000329000000006000709999N0000N9990006667N2306218052N598341000416051212N00N00N00            0002260000570003392013                    0N2 0000001688050 Y500062120310000NN                                   2 05902
4540000000000001681210002900308368290LAWSON FORK CREEK        US 29             3.0 MI E OF SPARTANBURG  99990019070100US00029000345738000815416000023010114192406000189002011501952000000040000000000A55104000004000019500183000671015015019502329999N0000N9990007777N1504129772N588341000771021224N00N00N00            0000550000140000832013                    0N2 1019701688040 Y506596120310000NN                                   2 07422
4540000000000001691310003100308300000PACOLET RIVER            S-42-31           2.0 MI W COWPENS         999900025600            350045000815022000053010116200202000026002011900980300111150000000000A15602000005000010400320001295000000010401149999N0000N9990008887N1450132485N576   001295091124N00N00N00            0000000000000000002013                    0N2 0000001188050 Y500491420310000NN                                   0 09840
4540000000000001701310001800408700000ROCKY CREEK              SC 18             5.9 MI N OF UNION        999900080800            344818000813924000023010107192402000024002011401400000000040000000000A15119000003000014000030000104000000014001779999N0000N999000NNN461513130669N568   000104091224N00N00N00            0000000000000000002013                    0N2 000000NNNN050 Y900350420310000NN                                   0 09600
4540000000000001711310021500408700000BUFFALO CREEK            SC 215            TOWN OF BUFFALO          999900201400            344324000814030000023010116192402000044002011401010220000040000000000A15119000003000009100037000110000000009101869999N0000N999000NNN661594136064N588   000110081224N00N00N00            0000000000000000002013                    0N2 001975NNNN050 Y800620420310000NN                                   0 07950
4540000000000001741210001700601300000COMBAHEE RIVER           US 17             COLLETON CO LN           99990012650100US00017000323906000804100000273010102200804000101002011902323000111140000000000A15602101004001211700366002530000000023502539999N0000N9990007878N1450132479N598   002530101224N00Y60N00    1208    0000000000000000002013                    1N2 1000001188080 Y501757420310000NN                                   0 08520
4540000000000001751220001700602900000CALFPEN SWAMP            US 17 ALT         HENDERSONVILLE           999900060300            324524000804436000023010107192502000017002011401220000000040000000000A15119000002000012200030000070000000012201379999N0000N999000NNN772450232477N568   000070031224N00N00N00            0000000000000000002013                    0N2 000000NNNN050 Y800248220310000NN                                   0 09680
4540000000000001761220001700602900000BLUE HORSE CREEK         US 17 ALT         3.5 MI S OF WALTBR       999900114500            324842000804324000023010107192502000017002011401340000000040000000000A15119000002000013400030000070000000013401409999N0000N999000NNN462450232468N568   000070051224N00N00N00            0000000000000000002013                    0N2 000000NNNN060 Y800248220310000NN                                   0 09680
4540000000000001771310006100603500000TRIB TO ASHLEY RIVER     SC 61             7.8MI SE SUMR'VL         999900176800            325430000800900000193010107192502000088002011201040000000040000000000A15119000002000010400030000070000000010401499999N0000N999000NNN762333224364N568   000070071224N00N00N00            0000000000000000002013                    0N2 000000NNNN050 Y801284820310000NN                                   0 07870
4540000000000001781210002500203722795BEAVERDAM CREEK          US 25             TOWN OF EDGEFIELD        99990016770100US00025000334648000815515000003010114192502000061002011401100000111140000000000A15119000002000009200030000070000000009201059999N0000N999000NNN851585135153N598341000132011224N00N00N00            0000820000210001232013                    0N2 100000NNNN080 Y800951620310000NN                                   2 07002
4540000000000001791210002500203722795ACADEMY CREEK            US 25             TOWN OF EDGEFIELD        99990018090100US00025000334732000815549000023010114192502000032002011401220000000040000000000A55119000003000012300030000104018018012301899999N0000N999000NNN751684140556N598   000104011224N00N00N00            0000000000000000002013                    0N2 100000NNNN080 Y800499220310000NN                                   0 08570
4540000000000001801310002300203722795BEAVERDAM CREEK          SC 23             TOWN OF EDGEFIELD        999900163300            334722000815609000023010116192502000018502011400910000000040000000000A55119000003000009100037000122000015009101589999N0000N999000NNN751585135155N598   000122011224N00N00N00            0000000000000000002013                    0N2 000000NNNN060 Y800260920310000NN                                   0 08100
4540000000000001811310006800203700000TURKEY CREEK             S-19-68           12.3MI W EDGEFIELD       044500077500            334741000820841000113010107192502000002252011100910001000050000000000A15310101001001005500463000927000000005500620445N0000N9990005567N2297218053N596311001036021312Y12N00N000213        0009130002280013702013                    0N2 0019921188050 Y800032920310000NN                                   2 04302
4540000000000001821210030100504100000CYPRESS BRANCH           US 301            TOWN OF OLANTA           999900020400            335600000795618000063010107192502000021002011201220000000040000000000A55119000003000012200030000104017017012201659999N0000N999000NNN861468127966N588   000104031224N00N00N00            0000000000000000002013                    0N2 000000NNNN050 Y800306620310000NN                                   0 09330
4540000000000001831310031800304500000DAM AT LAKE LANIER       S-23-318          17.5 MI N GREER          999900045200            351149000821406000033010119192502000001252011100670000000040000000000P15104000005000005500079000405000000005500659999N0000N9990005556N0198014443N284311000495041212N00N00N00            0003940000990005912013                    0N2 0000001100060 Y500016020310000NN                                   2 04112
4540000000000001841210022100204700000QUARTERS CREEK           US 221            7.6 MI NE OF GREENWOOD   99990023970100US00221000341622000820426000023010102192502000104002011202680000001040000000000A15119000002000026800030000070000000026803939999N0000N999000NNN851891189159N598   000070031224N00N00N00            0000000000000000002013                    0N2 101975NNNN081 Y801809620310000NN                                   0 08590
4540000000000001851210032100704900000BLACK CREEK              US 321            N ESTILL CL              99990012350100US00321000324613000811427000083010102192502000044002011201220000000040000000000A15119000002000013400030000064000000013401349999N0000N999000NNN772333224367N567   000064041224N00N00N00            0000000000000000002013                    0N2 100000NNNN061 Y800765620310000NN                                   0 08770
4540000000000001861310001500405700000HANGING ROCK CREEK       S-29-15           1MI S HEATH SPRINGS      999900009500            343435000804037000023010107192502000019002011201280000000040000000000P15104000003000013400091000274002002013401409999N0000N9990006566N0189013548N178   000274081212N00N00N00            0000000000000000002013                    0N2 0019681688050 Y500277420310000NN                                   0 05790
4540000000000001871310001900405700000CAMP CREEK               S-29-19           6.0 MI. SOUTH LANCASTER  999900004800            343806000804602000023010117192502000022002011200980000000040000000000A15104000002000005500094000192000000005500639999N0000N9990006666N0297018052N568341000266071124N00N00Y12        09110001660000420002492013                    0N2 0000001688050 Y300310220310000NN                                   2 05892
4540000000000001881310001900405700000WHITE OAK CREEK          S-29-19           5.5MI S LANCASTER        999900047600            343827000804605000053010107192502000010002011200980000000040000000000A15104000001000005500122000122000000005500639999N0000N9990006666N0297018052N578341000189071124N00N00N00            0001180000300001772013                    0N2 0000001688050 Y500146020310000NN                                   2 05882
4540000000000001891310002600405700000CLARK BRANCH             S-29-26           4.8MI N KERSHAW          999900051400            343655000803631000033010107192502000009502011200850000000040000000000A15104104002000209200098000268000000009201039999N0000N9990006557N2324224356N566   000268081124N00N00N00            0000000000000000002013                    0N2 0019731688050 Y500138720310000NN                                   0 07460
4540000000000001901310002600405700000LITTLE LYNCHES CREEK     S-29-26           5.8MI N KERSHAW          999900042500            343736000803653000063010107192502000009502011201040000000040000000000A15104104001000409200128000445000000009201019999N0000N9990006447N1360121646N568311000536081124N00N00N00            0005410001350008122013                    0N2 0019731688050 Y500138720310000NN                                   1 04911
4540000000000001911310002800405700000UNNAMED                  S-29-28           11.5MI NE LANCASTER      999900147700            344743000803536000083010107192502000006002011100850000000040000000000P15104000001000005500125000125000000005500649999N0000N9990005667N0162012642N088311000192081212N00N00N00            0001940000490002912013                    0N2 0000001188050 Y500087620310000NN                                   2 04882
4540000000000001921310003500405700000WAXHAW CREEK             S-29-35           7.8MI NW LANCASTER       999900032700            344928000804941000103010109200902000003002011500910000111140000000000A15501000002000010100213000396000000010101109999N0000N9990008887N2450232487N587   000396071124N00N00N00            0000000000000000002013                    0N2 0000001688060 Y500038420310000NN                                   0 09990
4540000000000001931310003600405700000CAMP CREEK               S-29-36           5.8MI NE LANCASTER       999900011900            344633000804157000033010107200202000012502011500910100111140000000000A15602000003000010200201000604000000010201119999N0000N9990008887N1450132485N588   000604071124N00N00N00            0000000000000000002013                    0N2 0000001188050 Y500182520310000NN                                   0 09880
4540000000000001941310005100405700000BELT LINE HANNAH CR      S-29-51           1.8MI NE LANCASTER       999900128100            344338000804431000023010117192502000009002011201220000000040000000000A15104101002000211100070000287002002011101209999N0000N9990006557N0297018057N568   000287071124N00N00N00            0000000000000000002013                    0N2 0019691688050 Y900126920310000NN                                   0 06310
4540000000000001951310005100405700000GILLS CREEK              S-29-51           2.6 MI NE LANCASTER      999900117600            344406000804343000023010117192502000009002011200910000000040000000000A15104000002000009300122000244005005009301089999N0000N9990006455N1324119846N588351000323071124N00N00N00            0001250000060001382013                    0N2 0019571688050 Y900126920310000NN                                   1 05281
4540000000000001961310005100405700000UPPER CAMP CREEK         S-29-51           7.5MI  NE LANCASTER      999900063200            344703000803952000033010107192502000009002011100880000011140000000000A15104000001000005600128000128000000005600639999N0000N9990005557N0297018052N566341000196081212N00N00N00            0001210000300001822013                    0N2 0000001688050 Y500131420310000NN                                   2 05092
4540000000000001971310005100405700000LITTLE OTTER CREEK       S-29-51           10.6MI NE LANCASTER      999900029900            344802000803645000023010107200502000004252011500910300111140000000000A15101101001000110100213000305000000010101109999N0000N9990008887N1450132486N587   000305081124N00N00N00            0000000000000000002013                    0N2 0000001688070 Y500062120310000NN                                   0 10000
4540000000000001981310007100405700000TRIB TO BEAR CREEK       S-29-71           5.2MI SE LANCASTER       999900025000            343948000804213000033010107192502000006002011200910000000040000000000A15104000001000005500122000122000000005500639999N0000N9990006668N0297018052N578341000189081124N00N00N00            0001170000290001762013                    0N2 0000001688050 Y500087620310000NN                                   2 05912
4540000000000001991310007100405700000BEAR CREEK               S-29-71           6.5MI SE LANCASTER       999900038300            343945000804057000023010107192502000006002011100910000000040000000000A15104000002000005500082000165000000005500639999N0000N9990005566N0297018052N584311000236071212N00N00N00            0002380000600003572013                    0N2 0000001688050 Y500087620310000NN                                   2 04912
4540000000000002001310007100405700000BEAR CREEK               S-29-71           6.9 MI SE LANCASTER      999900042800            343951000804028000023010107192502000006002011100910000000040000000000A15104000001000005500098000098000000005500639999N0000N9990005566N0297018052N588311000162071212N00N00N00            0001640000410002462013                    0N2 0000001688050 Y500087620310000NN                                   2 04812
4540000000000002011310007500405700000HANGING ROCK CREEK       S-29-75           1MI W KERSHHAW           999900046600            343243000803555000023010107192502000004092011100850000000040000000000P15104000001000005900125000128000000005900639999N0000N9990005466N0162012642N087311000196081212N00N00N00            0001890000470002842013                    0N2 0000001688060 Y500059720310000NN                                   1 02401
4540000000000002021310007500405700000HANGING ROCK CREEK       S-29-75           0.8 MI W KERSHAW         999900047100            343245000803551000023010107192502000005002011100850000000040000000000P15104000001000007200079000082000000007200739999N0000N9990005566N0198014444N287   000082081212N00N00N00            0000000000000000002013                    0N2 0000001688060 Y500073020310000NN                                   0 04500
4540000000000002031410009300405700000TWELVE MILE CREEK        L-29-93           5.5MI N VAN WYCK         999900007500            345540000804756000053010109192502000006002011101040000000040000000000P15104000003000005500128000384000000005500629999N0000N9990004466N0162011722N066311000473091212N00N00N00            0004770001190007162013                    0N2 0000001188060 Y500076820310000NN                                   1 01601
4540000000000002041310009900405700000FLAT CREEK               S-29-99           9MI NE KERSHAW           999900012300            343807000802750000033010109192502000001202011100730000000040000000000A15104000002000005500128000256000000005500639999N0000N9990006667N0297018053N586341000336081212N00N00N00            0001380000350002072013                    0N2 0000001188000 Y500015420310000NN                                   2 05922
4540000000000002051310015600405700000BEAR CREEK               S-29-156          6.6 MI E LANCASTER       999900014100            344045000804012000033010107192502000007092011100850000000040000000000A15104000001000005600128000128000000005600639999N0000N9990006666N0297018052N578341000196081212N00N00N00            0001210000300001822013                    0N2 0000001688060 Y500103520310000NN                                   2 05902
4540000000000002061310015600405700000LOCAL BR OF BEAR CR      S-29-156          6.0 MI E LANCASTER       999900023000            344129000804025000033010107192502000007092011100850000000040000000000A15104000001000005500098000098000000005500639999N0000N9990006666N0297018052N577341000162081212N00N00N00            0001010000250001522013                    0N2 0000001688060 Y500103520310000NN                                   2 05902
4540000000000002071210022100205940615LITTLE RIVER             US 221            LAURENS CITY LIMITS      999900177000            343017000820036000003010116192504000080002011301950000000040000000000A55111000002000018400140000283012012018402289999N0000N9990006658N2333224355N598   000283051224N00N00N00            0000000000000000002013                    0N2 0019701688040 Y501128020310000NN                                   0 07250
4540000000000002091310024400106300000RED BANK CREEK           S-32-244          TOWN OF RED BANK         999900020400            335542000811305000023010119192502000065002011400670000101140000000000A15119000003000006900037000116000000006900759999N0000N999000NNN662432232462N578   000116111224N00N00N00            0000000000000000002013                    0N2 000000NNNN020 Y800832020310000NN                                   2 08022
4540000000000002101210000100506900000HUSBANDS CREEK           US 1              1 MI N OF WALLACE        99990001360100US00001000344312000795142000063010114192502000044002011501040000000040000000000A15119000002000010400030000070000000010401049999N0000N999000NNN862450232465N588   000070021224N00N00N00            0000000000000000002013                    1N2 100000NNNN080 Y800686420310000NN                                   0 09280
4540000000000002111310002300506900000HAGINS CREEK             S-35-23           3 MI S CLIO              999900035900            3432180007933480000630101091925020000015620111009800000NNN40000000000A15104000004000011000091000244000000011001229999N0000N9990005558N0297018058N588   000244031212N00N00N00            0000000000000000002013                    0N2 0019761688060 Y500020020310000NN                                   0 07020
4540000000000002121310003600506900000MCLAURIN MILL CREEK      S-35-36           6 MI NW BENNETTSVILLE    999900007900            344030000794524000033010107200802000001752011901100000111140000000000A15501000001000010100183000183000000010101109999N0000N9990008888N1450132487N588   000183031124N00N00N00            0000000000000000002013                    0N2 0000002688070 Y500025620310000NN                                   0 09500
4540000000000002131310003600506900000ANDERSON MILL POND       S-35-36           2 MI S WALLACE           999900054200            344142000794948000053010107192502000001752011100850000NNNN40000000000A15119000003000006700030000101000000006700739999N0000N999000NNN851585135154N588   000101031212N00N00N00            0000000000000000002013                    0N2 000000NNNN070 Y800025620310000NN                                   0 07790
4540000000000002141310006300506900000CROOKED CREEK            S-35-63           4 MI N BENNETTSVILLE     999900013900            344148000793942000053010107200802000002902011901010000111140000000000A15501000001000010100183000183000000010101109999N0000N9990008888N1450132487N588   000183031124N00N00N00            0000000000000000002013                    0N2 0000002688060 Y500042320310000NN                                   0 09990
4540000000000002151310009000207149570CSX & SOU RR-NEWBERRY    S-36-90           NEWBERRY CITY LIMITS     999900008500            34161800081371800000301011619250200002100201120073010000004N000000000P52104000004000011100122000454018018011101199999R0655R024000554NN025201894544N8311000545081212N00N00N00            0005510001380008272013                    0N2 0000001688030 YN00296120310000NN                                   1 04991
4540000000000002161310021000707500000CATTLE CREEK             SC 210            8MI NE OF BRANCHVILLE    999900053800            331834000804447000053010107192502000010002011201280000000040000000000A15119000003000011600030000098000000011601229999N0000N999000NNN451531131557N567   000098121124N00N00N00            0000000000000000002013                    0N2 001951NNNN050 Y800146020310000NN                                   0 08550
4540000000000002171310003900208100000DRY CREEK                SC 39             3.3 MI NW OF SALUDA      99990020170100SC00039000340214000814828000053010106192502000014002011401100000000040000000000A15119000002000015600030000070000000015601589999N0000N999000NNN861639137869N598   000070081224N00N00N00            0000000000000000002013                    0N2 000000NNNN060 Y800222620310000NN                                   0 09670
4540000000000002181310003900208100000BIG CREEK                SC 39             5.2 MI NW OF SALUDA      99990022440100SC00039000340400000814904000063010106192502000014002011401100000111050000000000A15119000003000011700037000122000000011701529999N0000N999000NNN862450232466N598   000122081224N00N00N00            0000000000000000002013                    0N2 001964NNNN060 Y800222620310000NN                                   0 09960
4540000000000002191310012100208100000BURNETTS CREEK           SC 121            1.7 MI N OF SALUDA       99990012360100SC00121000340131000814607000033010106192502000040002011401340000111140000000000A15119000002000011200030000070000000011201589999N0000N999000NNN861801147765N598   000070081224N00N00N00            0000000000000000002013                    0N2 000000NNNN061 Y800636020310000NN                                   0 09840
4540000000000002201210002900308300000PACOLET RIVER            US 29             6.5 MI NE SPARTANBURG    99990023760100US00029000345936000815002000023010114192502000079002011201952000000040000000000A55111000006000019500533001423012012019502269999N0000N9990007777N2306218049N598   001423021224N00N00N00            0000000000000000002013                    0N2 1019721688040 Y802757120310000NN                                   0 07630
4540000000000002211310031700308300000FREY CREEK               S-42-317          6.4 MI W. SPARTANBURG    999900007800            345613000820231000003010119192502000002402011101040000000040000000000P55104000002000009100101000198000000009101069999N0000N9990005447N0072007226N078311000273081212N00N00N00            0002400000600003602013                    0N2 0019601688060 Y300030720310000NN                                   1 03501
4540000000000002221310003500408700000CSX RR                   S-44-35           2.6 MI W CARLISLE        999900071800            34343700081302700005301010820040200000225201150088000011114N000000000A12602602001000210400165000439000000010401139999R0711R035000888NN145013248755N7   000439081124N00N00N00            0000000000000000002013                    0N2 0000001188070 YN00031320310000NN                                   0 09900
4540000000000002231310006420701100000SALKEHATCHIE RIVER       SC 64             1/2MI W OF BARNWELL      99990003720100SC00064000331426000812432000023010106200202000007002011500731000111140000000000A15101000005000013400091000457000000013401439999N0000N9990007777N1450132479N567   000457071224N00N00N00            0000000000000000002013                    0R1 0000001188060 Y500111320310000NN                                   0 09990
4540000000000002241310012500701100000FOUR MILE CREEK          SC 125            SAVANNAH RIV PLANT       999900009700            331251000814243000103010107192602000018002011200910000101040000000000A15119000003000013400037000131000000013401459999N0000N999000NNN772675234278N567   000131061224N00N00N00            0000000000000000002013                    0N2 001978NNNN050 Y800262820310000NN                                   0 09820
4540000000000002251310012500701100000PEN BRANCH               SC 125            IN SAVANNAH RIV PLANT    999900044400            331059000814004000103010107192602000018002011200910000101040000000000A15119000003000013400091000274000000013401459999N0000N999000NNN751369121658N567   000274061224N00N00N00            0000000000000000002013                    0N2 001978NNNN050 Y800262820310000NN                                   0 07530
4540000000000002261310012500701100000SCL RAILROAD             SC 125            IN SAVANNAH RIV PLANT    999900073400            33090600081380000010301010719260200001800201120146000010104N000000000A12104000005000013400107000375000000013401459999R0640R032000555NN233322345845N7   000375061224N00N00N00            0000000000000000002013                    0N2 0019781688050 YN00262820310000NN                                   0 07000
4540000000000002271310012500701100000STEEL CREEK              SC 125            IN SAVANNAH RIV PLANT    999900078700            330845000813742000103010107192602000018002011201460000101040000000000A15104000004000013400067000268000000013401459999N0000N9990007557N2333223458N567   000268061224N00N00N00            0000000000000000002013                    0N2 0019781688050 Y500262820310000NN                                   0 07300
4540000000000002281210001730601913330ASHLEY RIVER             US 17             IN CHARLESTON            99990029460100US00017000324700000795736000023010114192603000291002011401221000000011005200192A15316204001002210400445005282014014010401319999N0000N9990006567N2450232452N568341005282101224Y24Y60N0010121010    0037540009390056312013                    1L1 10198816880402Y803783020310000NN                                   2 05582
4540000000000002291210007800601900000S.C.L. RR & S-39         US 78             IN N CHARLESTON          999900178900            32504200079580600002301011619260202004800201120110099000104N000000000P14104000021000008200158002268011011008201109999H0599H030000524NN002700272360N6311002326101212N00N00N00            0025460006370038192013                    0N2 0000001688030 YN00700820310000NN                                   1 01461
4540000000000002301310015100402500000LITTLE SANDY CREEK       SC 151            7.1 MI N OF MCBEE        99990018560100SC00151000343215000802048000163010102192602000067002011201100000000040000000000A15119000002000011000030000070000000011004579999N0000N999000NNN671837150474N578   000070121124N00N00N00            0000000000000000002013                    0N2 102001NNNN081 Y801165820310000NN                                   0 08990
4540000000000002311310015130402500000BIG SANDY CREEK          SC 151            7.4 MI NW OF MCBEE       99990018140100SC00151000343231000802107000003010102192602000033502011201130000111140000000000A15104000004000013400067000268000000013401529999N0000N9990007777N2396230679N588   000268121124N00N00N00            0000000000000000002013                    0L1 1020011688081 Y800582920310000NN                                   0 09920
4540000000000002321210030100503300000CATFISH CANAL            US 301            1.0MI S E OF LATTA       999900024200            341900000792642000023010107192602000035002011201340000000040000000000A15119000003000013400061000158000000013401409999N0000N999000NNN872450232477N568   000158021224N00N00N00            0000000000000000002013                    0N2 001955NNNN050 Y800511020310000NN                                   0 09670
4540000000000002331310003400403900000KENNEDY BRANCH           SC 34             3.3 MI W OF WINNSBORO    99990016360100SC00034000342440000810902000033010106192602000023002011501130000000040000000000A15119000002000011300030000070000000011301839999N0000N999000NNN651531120755N588   000070061224N00N00N00            0000000000000000002013                    0N2 000000NNNN060 Y800365720310000NN                                   0 07150
4540000000000002341310003400403900000JORDAN CREEK             SC 34             2.9 MI W OF WINNSBORO    99990017280100SC00034000342419000810815000033010106192602000023002011501250000000040000000000A15119000003000012500030000104000000012501839999N0000N999000NNN562450232466N588   000104061224N00N00N00            0000000000000000002013                    0N2 000000NNNN060 Y800365720310000NN                                   0 09670
4540000000000002351310003400403900000BR OF MOORE CREEK        SC 34             1.8 MI W OF WINNSBORO    99990018440100SC00034000342358000810711000033010106192602000023002011501190000000040000000000A15119000002000011900030000070000000011901839999N0000N999000NNN761765145965N588   000070061224N00N00N00            0000000000000000002013                    0N2 000000NNNN060 Y800365720310000NN                                   0 09570
4540000000000002361310003400403900000MOORE CREEK              SC 34             1.5 MI W OF WINNSBORO    99990018730100SC00034000342349000810658000033010106192602000023002011501130000000040000000000A15119000002000011300030000067000000011301839999N0000N999000NNN661765145965N587   000067061224N00N00N00            0000000000000000002013                    0N2 000000NNNN060 Y800365720310000NN                                   0 09570
4540000000000002371310034100504100000GUM BRANCH               SC 341            4MI W OF PROSPECT        999900229500            334948000793736000003010107192602000024002011201280000000040000000000A15119000003000006700030000104000000006701289999N0000N999000NNN862333224362N588341000169031224N00N00N00            0000910000230001372013                    0N2 000000NNNN050 Y800350420310000NN                                   2 07052
4540000000000002381310034100504100000GUM BRANCH               SC 341            3MI W OF PROSPECT        999900242700            335006000793612000003010107192602000024002011201280000000040000000000A15119000002000006700030000070000000006701319999N0000N999000NNN862333224362N588341000132031224N00N00N00            0000710000180001072013                    0N2 000000NNNN050 Y800350420310000NN                                   2 07052
4540000000000002391310034100504100000GUM BRANCH               SC 341            2MI W OF PROSPECT        999900263200            335006000793412000003010107192602000024002011201370000000040000000000A15119000002000006700030000070000000006701199999N0000N999000NNN862333224362N568341000132031224N00N00N00            0000710000180001072013                    0N2 000000NNNN050 Y800350420310000NN                                   2 07052
4540000000000002401310007000405700000HANNAHS CREEK            S-29-70           2.1MI E LANCASTER        999900004500            344313000804401000023010119192602000010002011200940000000040000000000A15104000002000007900067000131000000007900869999N0000N9990005466N2324224345N578311000199071124N00N00N00            0002010000500003022013                    0N2 0019611688060 Y500128020310000NN                                   1 04831
4540000000000002421310004900409100000BR TURKEY CK             SC 49             4.0 MI S OF YORK         99990013630100SC00049000345810000811802000033010106192602000035002011401190000000040000000000A15119000002000013500030000064000000013501419999N0000N999000NNN652450232459N578   000064061224N00N00N00            0000000000000000002013                    0N2 001970NNNN060 Y800556520310000NN                                   0 08540
4540000000000002431310004900409100000TURKEY CREEK             SC 49             3.0 MI S YORK            99990014430100SC00049000345825000811720000033010106192602000035002011401220000000040000000000A15119000003000013500037000122000000013501419999N0000N999000NNN662450232469N588   000122061224N00N00N00            0000000000000000002013                    0N2 001970NNNN060 Y800556520310000NN                                   0 09650
4540000000000002441310004900409100000ROSS BRANCH              SC 49             1.7 MI S YORK            99990015480100SC00049000345853000811622000033010106192602000035002011401220400000040000000000A15119000003000013100046000158000000013101379999N0000N999000NNN662450232466N588   000158061224N00N00N00            0000000000000000002013                    0N2 001970NNNN060 Y800556520310000NN                                   0 09650
4540000000000002451310004000601900000SCL RR                   S-10-40           8.5 MI W RAVENEL         999900025600            324524000802330000023010109192702000008402011300980450000040000000000A12104000005000006700152000521000000006700769999R0701R027000545NN233322434445N4311000615081124N00N00N00            0006210001550009322013                    0N2 0000001688060 YN00107520310000NN                                   1 04331
4540000000000002461310020000403900000GAYDENS CREEK            SC 200            9.8 MI N OF WINNSBORO    99990009540100SC00200000342906000810106000023010106192702000015002011200850000001140000000000A15119000003000008500037000122000000008501379999N0000N999000NNN662450232465N587   000122061224N00N00N00            0000000000000000002013                    0N2 000000NNNN060 Y800238520310000NN                                   0 09030
4540000000000002471310021500403900000SANDY FORK               SC 215            7.9MI S OF CHESTER CO LN 99990024360100SC00215000342820000811925000033010106192702000012002011401070000000040000000000A15119000003000010700030000104000000010701659999N0000N999000NNN651495129756N558   000104051224N00N00N00            0000000000000000002013                    0N2 000000NNNN060 Y800190820310000NN                                   0 08340
4540000000000002481310021500403900000BEAVER CREEK             SC 215            7.0 MI S OF CHESTER CO LN99990024900100SC00215000342839000811946000033010106192702000012002011401100000000040000000000A15119000005000011000037000201000000011001659999N0000N999000NNN551657139656N568   000201051224N00N00Y24        06120000000000000000002013                    0N2 000000NNNN060 Y800190820310000NN                                   0 08580
4540000000000002491310021500403900000CHICKEN CREEK            SC 215            5.6 MI S OF CHESTER CO LN99990026480100SC00215000342949000812056000033010106192702000012002011201100000000040000000000A15119000002000011000030000082000000011001659999N0000N999000NNN641657138746N588351000145051224N00N00N00            0000560000030000622013                    0N2 000000NNNN060 Y800190820310000NN                                   1 06981
4540000000000002501310021500403900000STRONG CREEK             SC 215            5.4 MI S OF CHESTER CO LN99990026720100SC00215000342954000812109000033010106192702000012002011201100000000040000000000A15119000002000011000030000070000000011001659999N0000N999000NNN661558133366N588   000070051224N00N00N00            0000000000000000002013                    0N2 000000NNNN060 Y800190820310000NN                                   0 09680
4540000000000002511210005200504100000MIDDLE SWAMP             US 52             4MI S OF FLORENCE        99990021810100US00052000340818000794606000053010114192704000298002011201220000000040000000000A15119000003000012600037000122000000024603919999N0000N999000NNN872333224369N588   000122031224N00N00N00            0000000000000000002013                    0N2 101962NNNN041 Y803486620310000NN                                   0 08180
4540000000000002521210005200504100000MIDDLE SWAMP             US 52             4MI S OF FLORENCE        99990021820100US00052000340824000794606000053010114192704000298002011401130000000040000000000A15119000003000011400037000122000000022503779999N0000N999000NNN872450232479N588   000122031224N00N00N00            0000000000000000002013                    0N2 101962NNNN041 Y803486620310000NN                                   0 09000
4540000000000002531310001900405700000BEAR CREEK               S-29-19           LYNNWOOD DR / LANCASTER  999900051500            344206000804548000053010107192702000010002011200980000000040000000000A15104104001000611100128000713003003011101269999N0000N9990005555N1522131557N568   000713071124N00N00N00            0000000000000000002013                    0N2 0019641688050 Y500146020310000NN                                   0 08450
4540000000000002541310008800206500000STEVENS CREEK            S-33-88           2.1 MI E CLARKS HILL     041900023600            334119000820849000143010107192702000002002011100850001000050000000000A15310101001001605500457001189000000005500590351N0000N9990005455N1297118042N598311001285061212Y12N00N000612        0011320002830016982013                    0N2 0019901188070 Y800029220310000NN                                   1 03261
4540000000000002551310021000707500000FOUR HOLE SWAMP          SC 210            8MI E OF BOWMAN          999900172400            332142000803407000163010107192702000010502011401280000000040000000000A15104000003000011000067000201000000011001209999N0000N9990007557N2333225256N567   000201011224N00N00N00            0000000000000000002013                    0N2 0019681688050 Y800153320310000NN                                   0 07360
4540000000000002561310021000707500000FOUR HOLE SWAMP          SC 210            8MI E OF BOWMAN          999900173700            332145000803400000163010107192702000010502011401280000000040000000000A15104000008000011100067000536000000011101239999N0000N9990007457N2333225246N567351000631011224N00N00N00            0002450000120002702013                    0N2 0019681688050 Y500153320310000NN                                   1 05731
4540000000000002571310021000707500000FOUR HOLE SWAMP          SC 210            8MI E OF BOWMAN          999900176900            332152000803343000163010107192702000010502011401280000000040000000000A15104000007000011100067000469000000011101239999N0000N9990007777N2333225266N567   000469011224N00N00N00            0000000000000000002013                    0N2 0019681688050 Y500153320310000NN                                   0 08480
4540000000000002581210000100107916000CONGAREE RIVER           US 1              CITY OF COLA             99990000010100US00001000335946000810302000033010114192704000264002011401460000000010000000000A15111000011000011000427004313019019011001339999N0000N9990007777N2306218042N578341004313031224N00Y60Y24    091204120028820007210043232013                    0N2 1000001688040 Y804540820310000NN                                   2 05142
4540000000000002591310012100208100000PERSIMMON CREEK          SC 121            6.3 MI NE OF SALUDA      99990017130100SC00121000340534000814516000033010106192702000040002011401340000111140000000000A15119000003000007700030000104000000007700859999N0000N999000NNN862450232462N598   000104081224N00N00Y24        10100000000000000000002013                    0N2 000000NNNN061 Y800636020310000NN                                   2 08032
4540000000000002611310026100508900000BOGGY SWAMP              SC 261            4 MI E OF KINGSTREE      99990016710100SC00261000334124000794454000063010106192702000028002011201040000000040000000000A15119000002000013700030000070000000013701439999N0000N999000NNN872333224369N588   000070101224N00N00N00            0000000000000000002013                    0N2 000000NNNN060 Y800445220310000NN                                   0 08860
45400000000000026212100076002007000003&20 CK                  US 76             3.2 MI SE OF PENDLETON   04520004280100US00076000343618000824544000003010114192804000161002011502102450111140000000000A15104101007000117800091000732000000017801890452N0000N9990006667N1576134265N588   000732011224N00N00N00            0000000000000000002013                    0N2 1019611688080 Y501964220310000NN                                   0 09400
4540000000000002631210002900402106400SOUTHERN RAILROAD        US 29             CITY LIMITS BLACKSBURG   99990019200100US0002900035072800081303300000301010219280200004900201120110000001114N000000000A12104000003000008400110000329012012008401169999R0663R032000445NN151313064345N7311000416121124N00N00N00            0004550001140006832013                    0N2 1000001688080 YN00852620310000NN                                   1 04821
4540000000000002641210002900402100000STREAM                   US 29             3.2 MI E OF BLACKSBURG   99990022100100US00029000350827000812748000023010102192802000031002011401280000000040000000000A15119000003000010300030000104000000010301659999N0000N999000NNN561441126164N578   000104121124N00N00N00            0000000000000000002013                    0N2 101970NNNN050 Y800539420310000NN                                   0 08950
4540000000000002651210002900402100000BR OF JUMPING CREEK      US 29             3.8 MI E OF BLACKSBURG   99990022430100US00029000350835000812730000023010102192802000025002011401130450000040000000000A15119000002000010200037000098000000010201689999N0000N999000NNN761648138764N588   000098121124N00N00N00            0000000000000000002013                    0N2 101970NNNN050 Y800435020310000NN                                   0 09480
4540000000000002661310004300402100000DOLITTLE CREEK           S-11-43           1.3MI S BLACKSBURG       999900016300            350609000813047000023010107200302000018502011501070000111140000000000A15502101001000210300122000305000000010301129999N0000N9990008887N1630137885N528   000305121224N00N00N00            0000000000000000002013                    0N2 0000002688050 Y500270120310000NN                                   1 09481
4540000000000002691310019300402300000TRIB TO SOUTH FORK CR    S-12-193          8.8MI NE CHESTER         999900010600            344740000810633000133010109192802000001202011100940000000040000000000A15119000001000009200085000085000000009200999999N0000N999000NNN552351214446N577   000085021212N00N00N00            0000000000000000002013                    0N2 001994NNNN060 Y800015420310000NN                                   0 06000
4540000000000002701210001500603500000EDISTO RIVER             US 15             8.9 MI SW ST GEORGE      999900000100            324354000803654000103010107192802000025002011201220000011140000000000A15104104009000009800152000914005005009801079999N0000N9990006666N2432233364N568   000914061224N00N00N00            0000000000000000002013                    0N2 0019651688050 Y300365020310000NN                                   0 09170
4540000000000002711210007800603500000COLDWATER BRANCH         US 78             10 MI SE OF ST GEORGE    99990018580100US00078000330830000802424000183010102192802000048002011501070000000040000000000A15119000002000010700030000070000000010701349999N0000N999000NNN762450232465N568   000070061224N00N00N00            0000000000000000002013                    0N2 100000NNNN080 Y800835220310000NN                                   0 09190
4540000000000002721210007800603500000TIMOTHY CREEK            US 78             9.5 MI NW OF SUMR'VL     99990025320100US00078000330706000801824000113010102192802000061002011500980000001040000000000A15119000002000009800037000082000000009801059999N0000N999000NNN772450232474N568   000082071224N00N00N00            0000000000000000002013                    0N2 100000NNNN080 Y801061420310000NN                                   0 09280
4540000000000002731210007800603500000TRIB TO TIMOTHY CK       US 78             9.4 MI NW SUMMERVILLE    99990025390100US00078000330700000801818000113010102192802000061002011501040000001040000000000A15119000001000009800037000064000000009801059999N0000N999000NNN772450232474N568   000064071224N00N00N00            0000000000000000002013                    0N2 100000NNNN080 Y801061420310000NN                                   0 09280
4540000000000002741210007800603500000GREAT CYPRESS SWAMP #1   US 78             6.9 MI NW SUMMERVILLE    99990028420100US00078000330524000801600000163010102192802000061002011501040000001040000000000A15119000001000009800037000064000000009801059999N0000N999000NNN772450232474N568   000064071224N00N00N00            0000000000000000002013                    0N2 100000NNNN080 Y801140720310000NN                                   0 09130
4540000000000002751210007800603500000GREAT CYPRESS SWAMP #2   US 78             6.8 MI NW OF SUMR'VL     99990028470100US00078000330518000801554000163010102192802000061002011501040000001040000000000A15119000002000009800082000082000000009801059999N0000N999000NNN772450232474N568   000082071224N00N00N00            0000000000000000002013                    0N2 100000NNNN080 Y801140720310000NN                                   0 09130
4540000000000002761210017800603500000WALNUT CREEK (NO. 1)     US 178            5 MI S OF HARLEY'VL      999900152700            330948000802306000063010107192802000026002011501040000011140000000000A15119000002000009800037000082000000009801059999N0000N999000NNN672450232474N568   000082071224N00N00N00            0000000000000000002013                    0N2 000000NNNN050 Y800379620310000NN                                   0 09730
4540000000000002781310020000403900000BEAVER DAM CREEK         SC 200            6.5 MI N OF WINNSBORO    99990006270100SC00200000342629000810208000063010106192802000015002011201040000011140000000000A15104000007000009200067000469000000009201099999N0000N9990006467N2315224345N588351000561061224N00N00N00            0002180000110002402013                    0N2 0019631688060 Y500238520310000NN                                   1 05491
4540000000000002791310020000403900000WATEREE CREEK            SC 200            11.1 MI N OF WINNSBORO   99990010050100SC00200000342930000810100000023010106192802000015002011201100000011140000000000A15104000013000009200067000872000000009201099999N0000N9990004346N2315224335N588311000980061224N00N00N00            0009890002470014842013                    0N2 0019631688060 Y300238520310000NN                                   1 03521
4540000000000002801310021500403900000MCCLURES CREEK           SC 215            2.3 MI S OF CHESTER CO LN99990029420100SC00215000343146000812224000033010106192802000012002011401130000000040000000000A15119000003000011300037000119000000011301659999N0000N999000NNN542450232446N588351000186051224N00N00N00            0000720000040000792013                    0N2 000000NNNN060 Y800190820310000NN                                   1 06981
4540000000000002821410060100403900000BR OF LITTLE RIVER       C-20-601          8.1 MI NE WINNSBORO      999900002500            342551000811249000053010109192801000001262011000490000000040000000000P15302000001000004600116000116000000004600469999N0000N9990005546N0045004522N077311000182071212N00N00N00            0001450000360002182013                    0N3 0019998788000 Y300016120310000NN                                   1 02451
4540000000000002831210005200504100000LYNCHES LAKE             US 52             0.5MI N OF LAKE CITY     99990003480100US00052000335300000794530000023010114192804000119002011301980000000040000000000A55104000011000019800076000838015015019802369999N0000N9990007777N1594136077N588   000838031224N00N00N00            0000000000000000002013                    0N2 1019741688041 Y301856420310000NN                                   0 09590
4540000000000002841210030100504100000STREAM - BARTON BR       US 301            5.9MI NW OF COWARD       999900145100            340406000794730000003010107192802000031002011201310000000040000000000A15119000003000014700030000104000000014701479999N0000N999000NNN872333224369N588   000104031224N00N00N00            0000000000000000002013                    0N2 000000NNNN050 Y800452620310000NN                                   0 08950
4540000000000002851310000500304500000BRUSHY CREEK             S-23-5            2.9MI SW GREENVILLE      999900024400            344848000822545000023010117192802000019002011400760000000040000000000A15119000001000006800094000107000009006800779999N0000N999000NNN762387227963N588341000172061124N00N00N00            0000920000230001382013                    0N2 0000001688020 Y800410420310000NN                                   2 07472
4540000000000002861310000500304500000BRUSHY CREEK             S-23-5            1.5MI SW GREENVILLE      999900024800            344949000822505000023010117192802000019002011401340000000040000000000A15119000001000013400116000116000012013401349999N0000N999000NNN872351225268N578   000116061124N00N00N00            0000000000000000002013                    0N2 0000001688020 Y800410420310000NN                                   0 09050
4540000000000002881310004700304500000REEDY RIVER              S-23-47           1.8MI NW GREENVILLE      999900017100            345208000822515000003010117192801000009502011200730000000040000000000P15119000001000004800189000189000000004800569999N0000N999000NNN660234016243N388341000263051212N00N00N00            0001760000440002642013                    0N3 000000NNNN020 Y800205220310000NN                                   2 06102
4540000000000002891310008000304500000REEDY RIVER              S-23-80           CITY GREENV-HUDSON ST    999900006000            345100000822437000023010117192802000038002011200910000000040000000000P55302000001000007300140000140012017007301089999N0000N9990007656N0234018052N368311000209071224N00N00Y12        07120002290000570003442013                    0N2 0000001688020 Y500820820310000NN                                   2 04842
4540000000000002901310014700304500000BRUSHY CREEK             S-23-147          CITY GREENV-WASHINGTON ST999900011000            345200000822524000003010117192802000036002011400790000000040000000000A15119000001000007100122000165000000007100799999N0000N999000NNN662342225262N588341000236071124N00N00N00            0001410000350002122013                    0N2 0000001688020 Y800777620310000NN                                   2 07172
4540000000000002911310066400304530850REEDY RIVER              S-23-664          RIVER ST-GREENVILLE      999900008100            345054000822411000023010117192803000038002011201220000000040000000000P55104000005000014100091000457020020014101939999N0000N9990005557N0279021655N588   000457041212N00N00N00            0000000000000000002013                    0N2 0000001688020 Y500820820310000NN                                   0 07200
4540000000000002921310096900304500000NORTH SALUDA RIVER       S-23-969          10.6 MI N TRAVELERS REST 999900013800            350700000822648000023010108192802000002752011200910000000040000000000A15104000005000006200088000405000000006200729999N0000N9990006458N2351214444N588311000495051124N00N00N00            0004360001090006542013                    0N2 0000001688070 Y500038220310000NN                                   1 03101
4540000000000002931210052100105500000GUM SWAMP                US 521            5 MI N OF CAMDEN         99990016020100US00521000342025000803556000083010102192802000039002011501130000101140000000000A15119000003000011300030000098000000011301469999N0000N999000NNN871315118955N578   000098041224N00N00N00            0000000000000000002013                    0N2 100000NNNN080 Y800678620310000NN                                   0 08000
4540000000000002941210052130405700000TWELVE MILE CREEK        US 521            12.0 MI N OF LANCASTER   99990036600100US00521000345456000804856000023010102192802000071002011201040000101140000000000A15502101002000912200131000866000000012201319999N0000N9990007767N2333224367N588   000866091224N00N00N00            0000000000000000002013                    0L1 1019771688060 Y501235420310000NN                                   0 09180
4540000000000002951310004700405700000BASKINS CREEK            S-29-47           9.3 MI SE LANCASTER      999900011700            343915000803756000023010107192802000003822011100850000000040000000000P15104000003000005500067000201000000005500639999N0000N9990004456N0216016243N278311000276081212N00N00N00            0002670000670004012013                    0N2 0000001688060 Y500055820310000NN                                   1 02961
4540000000000002961310082300206500000LITTLE RIVER             SC 823            13.3MI NW OF MCCORMICK   038400024900            340156000822832000053010107192802000003002011201040001111040000000000A15310502001000405500610000975000000005500580384N0000N9990005555N2306213542N568311001082061224Y12N00N000612        0010460002620015692013                    0N2 0019581688050 Y800043820310000NN                                   2 03902
4540000000000002971310037200506900000BEVERLY CREEK            S-35-372          2 MI N BENNETTSVILLE     999900005400            344000000793936000023010109192802000001802011400880000NNNN40000000000A15119000002000008500030000067000000008500919999N0000N999000NNN882450232486N568   000067031124N00N00N00            0000000000000000002013                    0N2 000000NNNN060 Y800023020310000NN                                   0 10000
4540000000000002981210007600207100000CSX RR                   US 76             5.3 MI NW OF NEWBERRY    999900070100            34200900081403300010301010720060200002800201150134060011114N000000000A12502000001000013400402000402000000013401439999R0732R055000788NN145013248775N6   000402071224N00N00N00            0000000000000000002013                    0N2 0000001188050 YN00408820310000NN                                   0 09870
4540000000000002991210007600207100000C.N. AND L. RR.          US 76             2.3 MI N OF NEWBERRY     999900106200            34183600081372400003301011620070400002800201190168055011114N000000000A52402000003000016800399001039015015016802079999R0724R079000888NN145013248595N6   001039071224N00N00N00            0000000000000000002013                    0N2 0000001188050 YN00394820310000NN                                   0 08980
