45400000000000S6501611003 00000000000HAGGINS CREEK            JOHN BROWN ROAD   0.3 MI E OF PASSMORE ROAD99990000483000000000000034544800080521200199362620819500100000020199400040030000005N000000000B15319000002000004000024000061000000000000009999N0000N000000NNN21205420360NN022311000107079412N  N  Y120000000007940001850000180002251994   000000000000000000N3 010000NNNN1000Y600020020120000 Y                 A                 1*0321
4540000140020001001310002000200100100PARKER CREEK             SC 20             GREENVLLE ST IN ABBEV    999900018180            341118000822254000003010116193002000031001997401490450000040000000000A15119000002000014900042000091000012000000009999N0000N999000NNN66245323266NN598   000070099924N  N  N          00000000640000060000971995                    0N2 001977NNNN030 Y800424720170000                   Z                 0*0970
4540000140020002001310002000200100000CALHOUN CREEK            SC 20             2.6 MI N W OF ABBEVILLE  999900050031000SC0020000341254000822324000043010106193002000039001997401150000111140000000000A15119119003000011500030000103000000000000009999N0000N999000NNN86245323266NN598   000103099924N  N  N              0000880000080001321995                    0N2 001977NNNN060 Y800592820170000                   Z                 0*0993
4540000140020003001310002000200100000PARK CREEK               SC 20             10.3 MI N OF ABBEVILLE   999900188731000SC0020000341942000822242000003010106193002000018001997401030000111140000000000A15119000002000010300030000070000000000000009999N0000N999000NNN66245323266NN598   000070099924N  N  N              0000590000050000891995                    0N2 000000NNNN060 Y800273620170000                   Z                 0*1000
4540000140020004001310002000200100000CHICKASAW CREEK          SC 20             10.8 MI N W OF ABBEVILLE 999900216891000SC0020000342006000822406000003010106193002000018001997400970000000040000000000A15119000003000009700036000122000000000000009999N0000N999000NNN66245323266NN598   000122099924N  N  N              0001040000100001561995                    0N2 000000NNNN060 Y800273620170000                   Z                 0*0970
4540000140020005001310002000200100000HOGSKIN CREEK            SC 20             12.8 MI N.W. OF ABBEVILLE999900232011000SC0020000342142000822512000033010106193002000018001997401030000000040000000000A15119000003000010300036000122000000000000009999N0000N999000NNN86245323266NN598   000122099924N  N  N              0001040000100001561995                    0N2 000000NNNN060 Y800273620170000                   Z                 0*0967
4540000140020006001310002000200100000CORNER CREEK             SC 20             15.7MI NW ABBEV          999900298951000SC0020000342354000822636000043010106194902000007001997400970000111140000000000A15119000003000009700030000100000000000000009999N0000N999000NNN86245323266NN598   000100099924N  N  N              0000820000080001231995                    0N2 000000NNNN060 Y800106420170000                   Z                 0*0999
4540000140028002001310002800200100000CALHOUN CREEK            SC 28             2.9 MI N W ABBEVILLE     999900186161000SC0028000341224000822454000043010106194002000029001997301340000111140000000000A15104000003000008000067000201000000008000839999N0000N9990005448N2498232643N598311000201099924N  N  N              0000760000070001141995                    1N2 0019531688060 Y300440820170000                   A                 1 0498
4540000140028003001310002800200100000LESLIE CREEK             SC 28             3.5 MI N W OF ABBEVILLE  999900196131000SC0028000341254000822518000043010106194002000029001997501340000000040000000000A15119000002000013400030000070000000000000009999N0000N999000NNN86245323266NN598   000070099924N  N  N              0000590000050000891995                    1N2 001969NNNN060 Y800440820170000                   Z                 0*0945
4540000140028004001310002800200100000PARK CREEK               SC 28             6.0 MI N W OF ABBEVILLE  